{
  "_format": "hh-sol-artifact-1",
  "contractName": "MevCube",
  "sourceName": "contracts/MevCube.sol",
  "abi": [
    {
      "inputs": [],
      "stateMutability": "payable",
      "type": "constructor"
    },
    {
      "inputs": [],
      "name": "getState",
      "outputs": [
        {
          "internalType": "bytes",
          "name": "state",
          "type": "bytes"
        }
      ],
      "stateMutability": "view",
      "type": "function"
    },
    {
      "inputs": [
        {
          "internalType": "string",
          "name": "slice",
          "type": "string"
        },
        {
          "internalType": "uint256",
          "name": "times",
          "type": "uint256"
        },
        {
          "internalType": "bool",
          "name": "toward",
          "type": "bool"
        }
      ],
      "name": "move",
      "outputs": [],
      "stateMutability": "nonpayable",
      "type": "function"
    },
    {
      "inputs": [
        {
          "internalType": "string",
          "name": "",
          "type": "string"
        },
        {
          "internalType": "uint256",
          "name": "",
          "type": "uint256"
        },
        {
          "internalType": "uint256",
          "name": "",
          "type": "uint256"
        }
      ],
      "name": "moves",
      "outputs": [
        {
          "internalType": "uint256",
          "name": "",
          "type": "uint256"
        }
      ],
      "stateMutability": "view",
      "type": "function"
    },
    {
      "inputs": [],
      "name": "reset",
      "outputs": [],
      "stateMutability": "nonpayable",
      "type": "function"
    },
    {
      "inputs": [],
      "name": "scramble",
      "outputs": [],
      "stateMutability": "nonpayable",
      "type": "function"
    }
  ],
  "bytecode": "0x60a06040526040518060600160405280603681526020016200261760369139600090805190602001906200003592919062000aa5565b503373ffffffffffffffffffffffffffffffffffffffff1660808173ffffffffffffffffffffffffffffffffffffffff1660601b815250506040518060a001604052806040518060800160405280600060ff168152602001601260ff168152602001601b60ff168152602001603560ff1681525081526020016040518060800160405280600360ff168152602001601560ff168152602001601e60ff168152602001603260ff1681525081526020016040518060800160405280600660ff168152602001601860ff168152602001602160ff168152602001602f60ff1681525081526020016040518060800160405280602460ff168152602001602660ff168152602001602c60ff168152602001602a60ff1681525081526020016040518060800160405280602560ff168152602001602960ff168152602001602b60ff168152602001602760ff168152508152506001604051620001949062000e7f565b9081526020016040518091039020906005620001b292919062000b36565b5060405180606001604052806040518060800160405280600160ff168152602001601360ff168152602001601c60ff168152602001603460ff1681525081526020016040518060800160405280600460ff168152602001601660ff168152602001601f60ff168152602001603160ff1681525081526020016040518060800160405280600760ff168152602001601960ff168152602001602260ff168152602001602e60ff1681525081525060016040516200026e9062000e68565b90815260200160405180910390209060036200028c92919062000b9b565b506040518060a001604052806040518060800160405280601460ff168152602001600260ff168152602001603360ff168152602001601d60ff1681525081526020016040518060800160405280601760ff168152602001600560ff168152602001603060ff168152602001602060ff1681525081526020016040518060800160405280601a60ff168152602001600860ff168152602001602d60ff168152602001602360ff1681525081526020016040518060800160405280600960ff168152602001600b60ff168152602001601160ff168152602001600f60ff1681525081526020016040518060800160405280600a60ff168152602001600e60ff168152602001601060ff168152602001600c60ff168152508152506001604051620003b49062000ec4565b9081526020016040518091039020906005620003d292919062000b36565b506040518060a001604052806040518060800160405280600960ff168152602001601260ff168152602001602460ff168152602001602d60ff1681525081526020016040518060800160405280600a60ff168152602001601360ff168152602001602560ff168152602001602e60ff1681525081526020016040518060800160405280600b60ff168152602001601460ff168152602001602660ff168152602001602f60ff1681525081526020016040518060800160405280600060ff168152602001600260ff168152602001600860ff168152602001600660ff1681525081526020016040518060800160405280600160ff168152602001600560ff168152602001600760ff168152602001600360ff168152508152506001604051620004fa9062000e23565b90815260200160405180910390209060056200051892919062000b36565b5060405180606001604052806040518060800160405280602760ff168152602001601560ff168152602001600c60ff168152602001603060ff1681525081526020016040518060800160405280602860ff168152602001601660ff168152602001600d60ff168152602001603160ff1681525081526020016040518060800160405280602960ff168152602001601760ff168152602001600e60ff168152602001603260ff168152508152506001604051620005d49062000e3a565b9081526020016040518091039020906003620005f292919062000b9b565b506040518060a001604052806040518060800160405280600f60ff168152602001603360ff168152602001602a60ff168152602001601860ff1681525081526020016040518060800160405280601060ff168152602001603460ff168152602001602b60ff168152602001601960ff1681525081526020016040518060800160405280601160ff168152602001603560ff168152602001602c60ff168152602001601a60ff1681525081526020016040518060800160405280601b60ff168152602001601d60ff168152602001602360ff168152602001602160ff1681525081526020016040518060800160405280601c60ff168152602001602060ff168152602001602260ff168152602001601e60ff1681525081525060016040516200071a9062000e51565b90815260200160405180910390209060056200073892919062000b36565b506040518060a001604052806040518060800160405280600660ff168152602001600960ff168152602001601d60ff168152602001602c60ff1681525081526020016040518060800160405280600760ff168152602001600c60ff168152602001601c60ff168152602001602960ff1681525081526020016040518060800160405280600860ff168152602001600f60ff168152602001601b60ff168152602001602660ff1681525081526020016040518060800160405280601260ff168152602001601460ff168152602001601a60ff168152602001601860ff1681525081526020016040518060800160405280601360ff168152602001601760ff168152602001601960ff168152602001601560ff168152508152506001604051620008609062000ead565b90815260200160405180910390209060056200087e92919062000b36565b5060405180606001604052806040518060800160405280600360ff168152602001600a60ff168152602001602060ff168152602001602b60ff1681525081526020016040518060800160405280600460ff168152602001600d60ff168152602001601f60ff168152602001602860ff1681525081526020016040518060800160405280600560ff168152602001601060ff168152602001601e60ff168152602001602560ff1681525081525060016040516200093a9062000e96565b90815260200160405180910390209060036200095892919062000b9b565b506040518060a001604052806040518060800160405280600260ff168152602001602460ff168152602001602160ff168152602001601160ff1681525081526020016040518060800160405280600160ff168152602001602760ff168152602001602260ff168152602001600e60ff1681525081526020016040518060800160405280600060ff168152602001602a60ff168152602001602360ff168152602001600b60ff1681525081526020016040518060800160405280602d60ff168152602001602f60ff168152602001603560ff168152602001603360ff1681525081526020016040518060800160405280602e60ff168152602001603260ff168152602001603460ff168152602001603060ff16815250815250600160405162000a809062000e0c565b908152602001604051809103902090600562000a9e92919062000b36565b50620010bc565b82805462000ab39062000ee6565b90600052602060002090601f01602090048101928262000ad7576000855562000b23565b82601f1062000af257805160ff191683800117855562000b23565b8280016001018555821562000b23579182015b8281111562000b2257825182559160200191906001019062000b05565b5b50905062000b32919062000c00565b5090565b82805482825590600052602060002090600402810192821562000b88579160200282015b8281111562000b875782518290600462000b7692919062000c1f565b509160200191906004019062000b5a565b5b50905062000b97919062000c69565b5090565b82805482825590600052602060002090600402810192821562000bed579160200282015b8281111562000bec5782518290600462000bdb92919062000c1f565b509160200191906004019062000bbf565b5b50905062000bfc919062000c69565b5090565b5b8082111562000c1b57600081600090555060010162000c01565b5090565b826004810192821562000c56579160200282015b8281111562000c55578251829060ff1690559160200191906001019062000c33565b5b50905062000c65919062000c00565b5090565b5b8082111562000c8d576000818162000c83919062000c91565b5060040162000c6a565b5090565b5060008155600101600081556001016000815560010160009055565b600062000cbc60018362000edb565b915062000cc98262000f4b565b600182019050919050565b600062000ce360018362000edb565b915062000cf08262000f74565b600182019050919050565b600062000d0a60018362000edb565b915062000d178262000f9d565b600182019050919050565b600062000d3160018362000edb565b915062000d3e8262000fc6565b600182019050919050565b600062000d5860018362000edb565b915062000d658262000fef565b600182019050919050565b600062000d7f60018362000edb565b915062000d8c8262001018565b600182019050919050565b600062000da660018362000edb565b915062000db38262001041565b600182019050919050565b600062000dcd60018362000edb565b915062000dda826200106a565b600182019050919050565b600062000df460018362000edb565b915062000e018262001093565b600182019050919050565b600062000e198262000cad565b9150819050919050565b600062000e308262000cd4565b9150819050919050565b600062000e478262000cfb565b9150819050919050565b600062000e5e8262000d22565b9150819050919050565b600062000e758262000d49565b9150819050919050565b600062000e8c8262000d70565b9150819050919050565b600062000ea38262000d97565b9150819050919050565b600062000eba8262000dbe565b9150819050919050565b600062000ed18262000de5565b9150819050919050565b600081905092915050565b6000600282049050600182168062000eff57607f821691505b6020821081141562000f165762000f1562000f1c565b5b50919050565b7f4e487b7100000000000000000000000000000000000000000000000000000000600052602260045260246000fd5b7f4200000000000000000000000000000000000000000000000000000000000000600082015250565b7f5500000000000000000000000000000000000000000000000000000000000000600082015250565b7f4500000000000000000000000000000000000000000000000000000000000000600082015250565b7f4400000000000000000000000000000000000000000000000000000000000000600082015250565b7f4d00000000000000000000000000000000000000000000000000000000000000600082015250565b7f4c00000000000000000000000000000000000000000000000000000000000000600082015250565b7f5300000000000000000000000000000000000000000000000000000000000000600082015250565b7f4600000000000000000000000000000000000000000000000000000000000000600082015250565b7f5200000000000000000000000000000000000000000000000000000000000000600082015250565b60805160601c61153f620010d86000396000505061153f6000f3fe608060405234801561001057600080fd5b50600436106100575760003560e01c80631865c57d1461005c578063b7113f651461007a578063bc662496146100aa578063cb8fe02c146100c6578063d826f88f146100d0575b600080fd5b6100646100da565b6040516100719190611208565b60405180910390f35b610094600480360381019061008f9190611111565b61016c565b6040516100a1919061122a565b60405180910390f35b6100c460048036038101906100bf91906110aa565b6101c7565b005b6100ce6102d4565b005b6100d8610305565b005b6060600080546100e990611325565b80601f016020809104026020016040519081016040528092919081815260200182805461011590611325565b80156101625780601f1061013757610100808354040283529160200191610162565b820191906000526020600020905b81548152906001019060200180831161014557829003601f168201915b5050505050905090565b600183805160208101820180518482526020830160208501208183528095505050505050828154811061019e57600080fd5b906000526020600020906004020181600481106101ba57600080fd5b0160009250925050505481565b60005b828110156102ce5760005b6001856040516101e591906111f1565b9081526020016040518091039020805490508110156102ba576102a760018660405161021191906111f1565b90815260200160405180910390208281548110610257577f4e487b7100000000000000000000000000000000000000000000000000000000600052603260045260246000fd5b906000526020600020906004020160048060200260405190810160405280929190826004801561029c576020028201915b815481526020019060010190808311610288575b505050505084610336565b80806102b290611388565b9150506101d5565b5080806102c690611388565b9150506101ca565b50505050565b60405180606001604052806036815260200161149e6036913960009080519060200190610302929190610f75565b50565b6040518060600160405280603681526020016114d46036913960009080519060200190610333929190610f75565b50565b60008083600060048110610373577f4e487b7100000000000000000000000000000000000000000000000000000000600052603260045260246000fd5b6020020151815461038390611325565b81106103b8577f4e487b7100000000000000000000000000000000000000000000000000000000600052603260045260246000fd5b8154600116156103d75790600052602060002090602091828204019190065b9054901a7f0100000000000000000000000000000000000000000000000000000000000000029050816109bc57600083600160048110610440577f4e487b7100000000000000000000000000000000000000000000000000000000600052603260045260246000fd5b6020020151815461045090611325565b8110610485577f4e487b7100000000000000000000000000000000000000000000000000000000600052603260045260246000fd5b8154600116156104a45790600052602060002090602091828204019190065b9054901a7f010000000000000000000000000000000000000000000000000000000000000002600084600060048110610506577f4e487b7100000000000000000000000000000000000000000000000000000000600052603260045260246000fd5b6020020151815461051690611325565b811061054b577f4e487b7100000000000000000000000000000000000000000000000000000000600052603260045260246000fd5b81546001161561056a5790600052602060002090602091828204019190065b601f036101000a81548160ff021916907f0100000000000000000000000000000000000000000000000000000000000000840402179055506000836002600481106105de577f4e487b7100000000000000000000000000000000000000000000000000000000600052603260045260246000fd5b602002015181546105ee90611325565b8110610623577f4e487b7100000000000000000000000000000000000000000000000000000000600052603260045260246000fd5b8154600116156106425790600052602060002090602091828204019190065b9054901a7f0100000000000000000000000000000000000000000000000000000000000000026000846001600481106106a4577f4e487b7100000000000000000000000000000000000000000000000000000000600052603260045260246000fd5b602002015181546106b490611325565b81106106e9577f4e487b7100000000000000000000000000000000000000000000000000000000600052603260045260246000fd5b8154600116156107085790600052602060002090602091828204019190065b601f036101000a81548160ff021916907f01000000000000000000000000000000000000000000000000000000000000008404021790555060008360036004811061077c577f4e487b7100000000000000000000000000000000000000000000000000000000600052603260045260246000fd5b6020020151815461078c90611325565b81106107c1577f4e487b7100000000000000000000000000000000000000000000000000000000600052603260045260246000fd5b8154600116156107e05790600052602060002090602091828204019190065b9054901a7f010000000000000000000000000000000000000000000000000000000000000002600084600260048110610842577f4e487b7100000000000000000000000000000000000000000000000000000000600052603260045260246000fd5b6020020151815461085290611325565b8110610887577f4e487b7100000000000000000000000000000000000000000000000000000000600052603260045260246000fd5b8154600116156108a65790600052602060002090602091828204019190065b601f036101000a81548160ff021916907f0100000000000000000000000000000000000000000000000000000000000000840402179055508060008460036004811061091b577f4e487b7100000000000000000000000000000000000000000000000000000000600052603260045260246000fd5b6020020151815461092b90611325565b8110610960577f4e487b7100000000000000000000000000000000000000000000000000000000600052603260045260246000fd5b81546001161561097f5790600052602060002090602091828204019190065b601f036101000a81548160ff021916907f010000000000000000000000000000000000000000000000000000000000000084040217905550610f70565b6000836003600481106109f8577f4e487b7100000000000000000000000000000000000000000000000000000000600052603260045260246000fd5b60200201518154610a0890611325565b8110610a3d577f4e487b7100000000000000000000000000000000000000000000000000000000600052603260045260246000fd5b815460011615610a5c5790600052602060002090602091828204019190065b9054901a7f010000000000000000000000000000000000000000000000000000000000000002600084600060048110610abe577f4e487b7100000000000000000000000000000000000000000000000000000000600052603260045260246000fd5b60200201518154610ace90611325565b8110610b03577f4e487b7100000000000000000000000000000000000000000000000000000000600052603260045260246000fd5b815460011615610b225790600052602060002090602091828204019190065b601f036101000a81548160ff021916907f010000000000000000000000000000000000000000000000000000000000000084040217905550600083600260048110610b96577f4e487b7100000000000000000000000000000000000000000000000000000000600052603260045260246000fd5b60200201518154610ba690611325565b8110610bdb577f4e487b7100000000000000000000000000000000000000000000000000000000600052603260045260246000fd5b815460011615610bfa5790600052602060002090602091828204019190065b9054901a7f010000000000000000000000000000000000000000000000000000000000000002600084600360048110610c5c577f4e487b7100000000000000000000000000000000000000000000000000000000600052603260045260246000fd5b60200201518154610c6c90611325565b8110610ca1577f4e487b7100000000000000000000000000000000000000000000000000000000600052603260045260246000fd5b815460011615610cc05790600052602060002090602091828204019190065b601f036101000a81548160ff021916907f010000000000000000000000000000000000000000000000000000000000000084040217905550600083600160048110610d34577f4e487b7100000000000000000000000000000000000000000000000000000000600052603260045260246000fd5b60200201518154610d4490611325565b8110610d79577f4e487b7100000000000000000000000000000000000000000000000000000000600052603260045260246000fd5b815460011615610d985790600052602060002090602091828204019190065b9054901a7f010000000000000000000000000000000000000000000000000000000000000002600084600260048110610dfa577f4e487b7100000000000000000000000000000000000000000000000000000000600052603260045260246000fd5b60200201518154610e0a90611325565b8110610e3f577f4e487b7100000000000000000000000000000000000000000000000000000000600052603260045260246000fd5b815460011615610e5e5790600052602060002090602091828204019190065b601f036101000a81548160ff021916907f01000000000000000000000000000000000000000000000000000000000000008404021790555080600084600160048110610ed3577f4e487b7100000000000000000000000000000000000000000000000000000000600052603260045260246000fd5b60200201518154610ee390611325565b8110610f18577f4e487b7100000000000000000000000000000000000000000000000000000000600052603260045260246000fd5b815460011615610f375790600052602060002090602091828204019190065b601f036101000a81548160ff021916907f0100000000000000000000000000000000000000000000000000000000000000840402179055505b505050565b828054610f8190611325565b90600052602060002090601f016020900481019282610fa35760008555610fea565b82601f10610fbc57805160ff1916838001178555610fea565b82800160010185558215610fea579182015b82811115610fe9578251825591602001919060010190610fce565b5b509050610ff79190610ffb565b5090565b5b80821115611014576000816000905550600101610ffc565b5090565b600061102b6110268461126a565b611245565b90508281526020810184848401111561104357600080fd5b61104e8482856112e3565b509392505050565b6000813590506110658161146f565b92915050565b600082601f83011261107c57600080fd5b813561108c848260208601611018565b91505092915050565b6000813590506110a481611486565b92915050565b6000806000606084860312156110bf57600080fd5b600084013567ffffffffffffffff8111156110d957600080fd5b6110e58682870161106b565b93505060206110f686828701611095565b925050604061110786828701611056565b9150509250925092565b60008060006060848603121561112657600080fd5b600084013567ffffffffffffffff81111561114057600080fd5b61114c8682870161106b565b935050602061115d86828701611095565b925050604061116e86828701611095565b9150509250925092565b60006111838261129b565b61118d81856112b1565b935061119d8185602086016112f2565b6111a68161145e565b840191505092915050565b60006111bc826112a6565b6111c681856112c2565b93506111d68185602086016112f2565b80840191505092915050565b6111eb816112d9565b82525050565b60006111fd82846111b1565b915081905092915050565b600060208201905081810360008301526112228184611178565b905092915050565b600060208201905061123f60008301846111e2565b92915050565b600061124f611260565b905061125b8282611357565b919050565b6000604051905090565b600067ffffffffffffffff8211156112855761128461142f565b5b61128e8261145e565b9050602081019050919050565b600081519050919050565b600081519050919050565b600082825260208201905092915050565b600081905092915050565b60008115159050919050565b6000819050919050565b82818337600083830152505050565b60005b838110156113105780820151818401526020810190506112f5565b8381111561131f576000848401525b50505050565b6000600282049050600182168061133d57607f821691505b6020821081141561135157611350611400565b5b50919050565b6113608261145e565b810181811067ffffffffffffffff8211171561137f5761137e61142f565b5b80604052505050565b6000611393826112d9565b91507fffffffffffffffffffffffffffffffffffffffffffffffffffffffffffffffff8214156113c6576113c56113d1565b5b600182019050919050565b7f4e487b7100000000000000000000000000000000000000000000000000000000600052601160045260246000fd5b7f4e487b7100000000000000000000000000000000000000000000000000000000600052602260045260246000fd5b7f4e487b7100000000000000000000000000000000000000000000000000000000600052604160045260246000fd5b6000601f19601f8301169050919050565b611478816112cd565b811461148357600080fd5b50565b61148f816112d9565b811461149a57600080fd5b5056fe4255554255554c4444464c4c4252524452524252524646554646424444524444554444555252554c4c4c4c4c4c4646554642424642425555555555555555555252525252525252524646464646464646464444444444444444444c4c4c4c4c4c4c4c4c424242424242424242a2646970667358221220ca48a07052ff519bd9338373d518339932a2624f73bc7e244371ee20bccb6e5064736f6c634300080400335555555555555555555252525252525252524646464646464646464444444444444444444c4c4c4c4c4c4c4c4c424242424242424242",
  "linkReferences": {},
  "deployedLinkReferences": {}
}