{
  "_format": "hh-sol-artifact-1",
  "contractName": "MevCube",
  "sourceName": "contracts/MevCube.sol",
  "abi": [
    {
      "inputs": [],
      "stateMutability": "payable",
      "type": "constructor"
    },
    {
      "inputs": [],
      "name": "getState",
      "outputs": [
        {
          "internalType": "bytes",
          "name": "state",
          "type": "bytes"
        }
      ],
      "stateMutability": "view",
      "type": "function"
    },
    {
      "inputs": [
        {
          "internalType": "string",
          "name": "rotations",
          "type": "string"
        }
      ],
      "name": "move",
      "outputs": [],
      "stateMutability": "nonpayable",
      "type": "function"
    },
    {
      "inputs": [
        {
          "internalType": "string",
          "name": "sliceString",
          "type": "string"
        },
        {
          "internalType": "uint256",
          "name": "times",
          "type": "uint256"
        },
        {
          "internalType": "bool",
          "name": "toward",
          "type": "bool"
        }
      ],
      "name": "moveSingleAxis",
      "outputs": [],
      "stateMutability": "nonpayable",
      "type": "function"
    },
    {
      "inputs": [
        {
          "internalType": "bytes1",
          "name": "",
          "type": "bytes1"
        },
        {
          "internalType": "uint256",
          "name": "",
          "type": "uint256"
        },
        {
          "internalType": "uint256",
          "name": "",
          "type": "uint256"
        }
      ],
      "name": "moves",
      "outputs": [
        {
          "internalType": "uint256",
          "name": "",
          "type": "uint256"
        }
      ],
      "stateMutability": "view",
      "type": "function"
    },
    {
      "inputs": [],
      "name": "reset",
      "outputs": [],
      "stateMutability": "nonpayable",
      "type": "function"
    },
    {
      "inputs": [],
      "name": "scramble",
      "outputs": [],
      "stateMutability": "nonpayable",
      "type": "function"
    }
  ],
  "bytecode": "0x610100604052603660a081815290620019b860c03980516200002a9160009160209091019062000879565b5033606090811b60809081526040805161012081018252600060a08201818152601260c0840152601b60e08401526035610100840152825282518085018452600381526015602082810191909152601e82860152603282880152808401919091528351808601855260068152601881830152602181860152602f81880152838501528351808601855260248152602681830152602c81860152602a81880152838701528351808601855260258152602981830152602b9481019490945260279584019590955292810191909152601360fa1b909152600190915262000133907ffdd45946974b93edbd1f77cd5240537d1a56d08c426747bb36e8aa254eaec41390600562000908565b506040805160e081018252600160608083018281526013608080860191909152601c60a0860152603460c086015290845284518082018652600481526016602082810191909152601f82880152603182850152808601919091528551918201865260078252601982820152602282870152602e9282019290925293830193909352604d60f81b600052909152620001ee907f07472c53168b2ffdf4612fa371117138999c6aa427f7a588c951ad81da84afee90600362000965565b506040805161012081018252601460a08201908152600260c0830152603360e0830152601d6101008301528152815160808181018452601782526005602083810182905260308487015260608085018290528186019490945285518084018752601a8152600881830152602d81880152602381860152858701528551808401875260098152600b81830152601181880152600f818601528486015285518084018752600a8152600e81830152601096810196909652600c9386019390935290830193909352602960f91b60005260019052620002ed917f6a2488e611b071cc5fd7ed53f8fad7dabe0860c05a02d3cbb778e40b8a5fc9ca919062000908565b506040805161012081018252600960a08201908152601260c0830152602460e0830152602d6101008301528152815160808181018452600a82526013602083810191909152602583860152602e6060808501919091528185019390935284518083018652600b8152601481830152602681870152602f818501528486015284518083018652600080825260028284015260088288015260068286015284860191909152855180840187526001808252600582850181905260079883019890985260039582019590955292850192909252605560f81b90915252620003f4917f79cefac7fc8f78963e9cc011cc55fff69c2ab8a9695abf04b28ac379188852f0919062000908565b506040805160e081018252602760608083019182526015608080850191909152600c60a0850152603060c085015291835283518083018552602881526016602082810191909152600d82870152603182840152808501919091528451928301855260298352601783820152600e8386015260329183019190915292820152604560f81b6000526001909152620004ae907f0a41fb680759d4c3e1f73fd8ee6a68f8bcba99309c49dd2db93e4d7ccd1ddfc590600362000965565b506040805161012081018252600f60a08201908152603360c0830152602a60e083015260186101008301528152815160808181018452601082526034602083810191909152602b838601526019606080850191909152818501939093528451808301865260118152603581830152602c81870152601a818501528486015284518083018652601b8152601d818301526023818701526021818501528385015284518083018652601c8152808201829052602295810195909552601e92850192909252820192909252601160fa1b6000526001909152620005b2907f4178b14d179a1f9e50bb3134d2bd49ed0e828922446e1a2ea69c010400dbbcaa90600562000908565b506040805161012081018252600660a08201908152600960c0830152601d60e0830152602c610100830152815281516080818101845260078252600c602083810191909152601c838601526029606080850191909152818501939093528451808301865260088152600f81830152601b81870152602681850152848601528451808301865260128152601481830152601a81870152601881850152838501528451808301865260138152601781830152601995810195909552601592850192909252820192909252602360f91b6000526001909152620006b6907f2375c8703c485a7befcfa5035b3251ea21c946f387aa4215a54616cf99b0a38b90600562000908565b506040805160e08101825260036060808301828152600a608080860191909152602060a08601819052602b60c08701529185528551808201875260048152600d81840152601f81880152602881850152828601528551908101865260058152601081830152601e8187015260259281019290925293830152605360f81b600052600190925262000769917f450a7514058ac97048c862b9a45530c89cd3fda999e311cb61755c9fae62fcd8919062000965565b506040805161012081018252600260a08201908152602460c0830152602160e08301526011610100830152815281516080818101845260018083526027602084810191909152602284870152600e60608086019190915281860194909452855180840187526000808252602a82840152602382890152600b828701528688019190915286518085018852602d8152602f818401526035818901526033818701528587015286518085018852602e815260328184015260349781019790975260309487019490945291840194909452602160f91b9091529190915262000872907f9b5ea32e6f671586ec025690f7a650235695fadffb2d6edca206e0f3cf58b66090600562000908565b5062000a68565b828054620008879062000a2b565b90600052602060002090601f016020900481019282620008ab5760008555620008f6565b82601f10620008c657805160ff1916838001178555620008f6565b82800160010185558215620008f6579182015b82811115620008f6578251825591602001919060010190620008d9565b5062000904929150620009b4565b5090565b82805482825590600052602060002090600402810192821562000957579160200282015b8281111562000957578251620009469083906004620009cb565b50916020019190600401906200092c565b506200090492915062000a01565b82805482825590600052602060002090600402810192821562000957579160200282015b8281111562000957578251620009a39083906004620009cb565b509160200191906004019062000989565b5b80821115620009045760008155600101620009b5565b8260048101928215620008f6579160200282015b82811115620008f6578251829060ff16905591602001919060010190620009df565b80821115620009045760008082556001820181905560028201819055600382015560040162000a01565b600181811c9082168062000a4057607f821691505b6020821081141562000a6257634e487b7160e01b600052602260045260246000fd5b50919050565b60805160601c610f3462000a8460003960005050610f346000f3fe608060405234801561001057600080fd5b50600436106100625760003560e01c80630bfb06971461006757806310bfaefb1461007c5780631865c57d1461008f578063b39839ed146100ad578063cb8fe02c146100ce578063d826f88f146100d6575b600080fd5b61007a610075366004610cf0565b6100de565b005b61007a61008a366004610d2b565b610273565b610097610388565b6040516100a49190610dd3565b60405180910390f35b6100c06100bb366004610cb0565b61041a565b6040519081526020016100a4565b61007a61045c565b61007a61048c565b8060005b815181101561026e57600082828151811061010d57634e487b7160e01b600052603260045260246000fd5b01602001516001600160f81b03191690506000610129826104b9565b90506001600160f81b031982811690821614801590610175576101706040518060400160405280600d81526020016c1b5bdd9a5b99c81d1bddd85c99609a1b815250610508565b6101a1565b6101a16040518060400160405280600b81526020016a6d6f76696e67206177617960a81b815250610508565b60005b6001600160f81b03198316600090815260016020526040902054811015610257576001600160f81b031983166000908152600160205260409020805461024591908390811061020357634e487b7160e01b600052603260045260246000fd5b60009182526020909120604080516080810191829052926004908102909201919082845b8154815260200190600101908083116102275750505050508361054b565b8061024f81610e4b565b9150506101a4565b50505050808061026690610e4b565b9150506100e2565b505050565b600083905060008160008151811061029b57634e487b7160e01b600052603260045260246000fd5b01602001516001600160f81b031916905060005b848110156103805760005b6001600160f81b0319831660009081526001602052604090205481101561036d576001600160f81b031983166000908152600160205260409020805461035b91908390811061031957634e487b7160e01b600052603260045260246000fd5b60009182526020909120604080516080810191829052926004908102909201919082845b81548152602001906001019080831161033d5750505050508661054b565b8061036581610e4b565b9150506102ba565b508061037881610e4b565b9150506102af565b505050505050565b60606000805461039790610e10565b80601f01602080910402602001604051908101604052809291908181526020018280546103c390610e10565b80156104105780601f106103e557610100808354040283529160200191610410565b820191906000526020600020905b8154815290600101906020018083116103f357829003601f168201915b5050505050905090565b6001602052826000526040600020828154811061043657600080fd5b9060005260206000209060040201816004811061045257600080fd5b0154925083915050565b604051806060016040528060368152602001610e9360369139805161048991600091602090910190610b99565b50565b604051806060016040528060368152602001610ec960369139805161048991600091602090910190610b99565b6000606160f81b6001600160f81b03198316108015906104e75750603d60f91b6001600160f81b0319831611155b15610504576104fb602060f884901c610ded565b60f81b92915050565b5090565b6104898160405160240161051c9190610dd3565b60408051601f198184030181529190526020810180516001600160e01b031663104c13eb60e21b179052610b78565b8151600080549091829161055e90610e10565b811061057a57634e487b7160e01b600052603260045260246000fd5b8154600116156105995790600052602060002090602091828204019190065b9054901a600160f81b029050816108c7576000836001602002015181546105bf90610e10565b81106105db57634e487b7160e01b600052603260045260246000fd5b8154600116156105fa5790600052602060002090602091828204019190065b9054600160f81b911a02600084816020020151815461061890610e10565b811061063457634e487b7160e01b600052603260045260246000fd5b8154600116156106535790600052602060002090602091828204019190065b601f036101000a81548160ff02191690600160f81b8404021790555060008360026004811061069257634e487b7160e01b600052603260045260246000fd5b602002015181546106a290610e10565b81106106be57634e487b7160e01b600052603260045260246000fd5b8154600116156106dd5790600052602060002090602091828204019190065b9054600160f81b911a026000846001602002015181546106fc90610e10565b811061071857634e487b7160e01b600052603260045260246000fd5b8154600116156107375790600052602060002090602091828204019190065b601f036101000a81548160ff02191690600160f81b8404021790555060008360036004811061077657634e487b7160e01b600052603260045260246000fd5b6020020151815461078690610e10565b81106107a257634e487b7160e01b600052603260045260246000fd5b8154600116156107c15790600052602060002090602091828204019190065b9054600160f81b911a026000846002602002015181546107e090610e10565b81106107fc57634e487b7160e01b600052603260045260246000fd5b81546001161561081b5790600052602060002090602091828204019190065b601f036101000a81548160ff02191690600160f81b840402179055508060008460036004811061085b57634e487b7160e01b600052603260045260246000fd5b6020020151815461086b90610e10565b811061088757634e487b7160e01b600052603260045260246000fd5b8154600116156108a65790600052602060002090602091828204019190065b601f036101000a81548160ff02191690600160f81b84040217905550505050565b6000836003602002015181546108dc90610e10565b81106108f857634e487b7160e01b600052603260045260246000fd5b8154600116156109175790600052602060002090602091828204019190065b9054600160f81b911a02600084816020020151815461093590610e10565b811061095157634e487b7160e01b600052603260045260246000fd5b8154600116156109705790600052602060002090602091828204019190065b601f036101000a81548160ff02191690600160f81b840402179055506000836002600481106109af57634e487b7160e01b600052603260045260246000fd5b602002015181546109bf90610e10565b81106109db57634e487b7160e01b600052603260045260246000fd5b8154600116156109fa5790600052602060002090602091828204019190065b9054600160f81b911a02600084600360200201518154610a1990610e10565b8110610a3557634e487b7160e01b600052603260045260246000fd5b815460011615610a545790600052602060002090602091828204019190065b601f036101000a81548160ff02191690600160f81b84040217905550600083600160048110610a9357634e487b7160e01b600052603260045260246000fd5b60200201518154610aa390610e10565b8110610abf57634e487b7160e01b600052603260045260246000fd5b815460011615610ade5790600052602060002090602091828204019190065b9054600160f81b911a02600084600260200201518154610afd90610e10565b8110610b1957634e487b7160e01b600052603260045260246000fd5b815460011615610b385790600052602060002090602091828204019190065b601f036101000a81548160ff02191690600160f81b840402179055508060008460016004811061085b57634e487b7160e01b600052603260045260246000fd5b80516a636f6e736f6c652e6c6f67602083016000808483855afa5050505050565b828054610ba590610e10565b90600052602060002090601f016020900481019282610bc75760008555610c0d565b82601f10610be057805160ff1916838001178555610c0d565b82800160010185558215610c0d579182015b82811115610c0d578251825591602001919060010190610bf2565b506105049291505b808211156105045760008155600101610c15565b600082601f830112610c39578081fd5b813567ffffffffffffffff80821115610c5457610c54610e7c565b604051601f8301601f19908116603f01168101908282118183101715610c7c57610c7c610e7c565b81604052838152866020858801011115610c94578485fd5b8360208701602083013792830160200193909352509392505050565b600080600060608486031215610cc4578283fd5b83356001600160f81b031981168114610cdb578384fd5b95602085013595506040909401359392505050565b600060208284031215610d01578081fd5b813567ffffffffffffffff811115610d17578182fd5b610d2384828501610c29565b949350505050565b600080600060608486031215610d3f578283fd5b833567ffffffffffffffff811115610d55578384fd5b610d6186828701610c29565b9350506020840135915060408401358015158114610d7d578182fd5b809150509250925092565b60008151808452815b81811015610dad57602081850181015186830182015201610d91565b81811115610dbe5782602083870101525b50601f01601f19169290920160200192915050565b602081526000610de66020830184610d88565b9392505050565b600060ff821660ff841680821015610e0757610e07610e66565b90039392505050565b600181811c90821680610e2457607f821691505b60208210811415610e4557634e487b7160e01b600052602260045260246000fd5b50919050565b6000600019821415610e5f57610e5f610e66565b5060010190565b634e487b7160e01b600052601160045260246000fd5b634e487b7160e01b600052604160045260246000fdfe4255554255554c4444464c4c4252524452524252524646554646424444524444554444555252554c4c4c4c4c4c4646554642424642425555555555555555555252525252525252524646464646464646464444444444444444444c4c4c4c4c4c4c4c4c424242424242424242a264697066735822122040c63bca4251f1354bb3782488b36d9c06b8bec7c9a09c08fda715e9768ec4c164736f6c634300080400335555555555555555555252525252525252524646464646464646464444444444444444444c4c4c4c4c4c4c4c4c424242424242424242",
  "linkReferences": {},
  "deployedLinkReferences": {}
}