{
  "_format": "hh-sol-artifact-1",
  "contractName": "MevCube",
  "sourceName": "contracts/MevCube.sol",
  "abi": [
    {
      "inputs": [],
      "stateMutability": "payable",
      "type": "constructor"
    },
    {
      "inputs": [],
      "name": "getState",
      "outputs": [
        {
          "internalType": "bytes",
          "name": "state",
          "type": "bytes"
        }
      ],
      "stateMutability": "view",
      "type": "function"
    },
    {
      "inputs": [
        {
          "internalType": "string",
          "name": "slice",
          "type": "string"
        },
        {
          "internalType": "uint256",
          "name": "times",
          "type": "uint256"
        },
        {
          "internalType": "bool",
          "name": "toward",
          "type": "bool"
        }
      ],
      "name": "move",
      "outputs": [],
      "stateMutability": "nonpayable",
      "type": "function"
    },
    {
      "inputs": [
        {
          "internalType": "string",
          "name": "",
          "type": "string"
        },
        {
          "internalType": "uint256",
          "name": "",
          "type": "uint256"
        },
        {
          "internalType": "uint256",
          "name": "",
          "type": "uint256"
        }
      ],
      "name": "moves",
      "outputs": [
        {
          "internalType": "uint256",
          "name": "",
          "type": "uint256"
        }
      ],
      "stateMutability": "view",
      "type": "function"
    }
  ],
  "bytecode": "0x60a06040526040518060600160405280603681526020016200247c60369139600090805190602001906200003592919062000aa5565b503373ffffffffffffffffffffffffffffffffffffffff1660808173ffffffffffffffffffffffffffffffffffffffff1660601b815250506040518060a001604052806040518060800160405280600060ff168152602001601260ff168152602001601b60ff168152602001603560ff1681525081526020016040518060800160405280600360ff168152602001601560ff168152602001601e60ff168152602001603260ff1681525081526020016040518060800160405280600660ff168152602001601860ff168152602001602160ff168152602001602f60ff1681525081526020016040518060800160405280602460ff168152602001602660ff168152602001602c60ff168152602001602a60ff1681525081526020016040518060800160405280602560ff168152602001602960ff168152602001602b60ff168152602001602760ff168152508152506001604051620001949062000e7f565b9081526020016040518091039020906005620001b292919062000b36565b5060405180606001604052806040518060800160405280600160ff168152602001601360ff168152602001601c60ff168152602001603460ff1681525081526020016040518060800160405280600460ff168152602001601660ff168152602001601f60ff168152602001603160ff1681525081526020016040518060800160405280600760ff168152602001601960ff168152602001602260ff168152602001602e60ff1681525081525060016040516200026e9062000e68565b90815260200160405180910390209060036200028c92919062000b9b565b506040518060a001604052806040518060800160405280601460ff168152602001600260ff168152602001603360ff168152602001601d60ff1681525081526020016040518060800160405280601760ff168152602001600560ff168152602001603060ff168152602001602060ff1681525081526020016040518060800160405280601a60ff168152602001600860ff168152602001602d60ff168152602001602360ff1681525081526020016040518060800160405280600960ff168152602001600b60ff168152602001601160ff168152602001600f60ff1681525081526020016040518060800160405280600a60ff168152602001600e60ff168152602001601060ff168152602001600c60ff168152508152506001604051620003b49062000ec4565b9081526020016040518091039020906005620003d292919062000b36565b506040518060a001604052806040518060800160405280600960ff168152602001601260ff168152602001602460ff168152602001602d60ff1681525081526020016040518060800160405280600a60ff168152602001601360ff168152602001602560ff168152602001602e60ff1681525081526020016040518060800160405280600b60ff168152602001601460ff168152602001602660ff168152602001602f60ff1681525081526020016040518060800160405280600060ff168152602001600260ff168152602001600860ff168152602001600660ff1681525081526020016040518060800160405280600160ff168152602001600560ff168152602001600760ff168152602001600360ff168152508152506001604051620004fa9062000e23565b90815260200160405180910390209060056200051892919062000b36565b5060405180606001604052806040518060800160405280602760ff168152602001601560ff168152602001600c60ff168152602001603060ff1681525081526020016040518060800160405280602860ff168152602001601660ff168152602001600d60ff168152602001603160ff1681525081526020016040518060800160405280602960ff168152602001601760ff168152602001600e60ff168152602001603260ff168152508152506001604051620005d49062000e3a565b9081526020016040518091039020906003620005f292919062000b9b565b506040518060a001604052806040518060800160405280600f60ff168152602001603360ff168152602001602a60ff168152602001601860ff1681525081526020016040518060800160405280601060ff168152602001603460ff168152602001602b60ff168152602001601960ff1681525081526020016040518060800160405280601160ff168152602001603560ff168152602001602c60ff168152602001601a60ff1681525081526020016040518060800160405280601b60ff168152602001601d60ff168152602001602360ff168152602001602160ff1681525081526020016040518060800160405280601c60ff168152602001602060ff168152602001602260ff168152602001601e60ff1681525081525060016040516200071a9062000e51565b90815260200160405180910390209060056200073892919062000b36565b506040518060a001604052806040518060800160405280600660ff168152602001600960ff168152602001601d60ff168152602001602c60ff1681525081526020016040518060800160405280600760ff168152602001600c60ff168152602001601c60ff168152602001602960ff1681525081526020016040518060800160405280600860ff168152602001600f60ff168152602001601b60ff168152602001602660ff1681525081526020016040518060800160405280601260ff168152602001601460ff168152602001601a60ff168152602001601860ff1681525081526020016040518060800160405280601360ff168152602001601760ff168152602001601960ff168152602001601560ff168152508152506001604051620008609062000ead565b90815260200160405180910390209060056200087e92919062000b36565b5060405180606001604052806040518060800160405280600360ff168152602001600a60ff168152602001602060ff168152602001602b60ff1681525081526020016040518060800160405280600460ff168152602001600d60ff168152602001601f60ff168152602001602860ff1681525081526020016040518060800160405280600560ff168152602001601060ff168152602001601e60ff168152602001602560ff1681525081525060016040516200093a9062000e96565b90815260200160405180910390209060036200095892919062000b9b565b506040518060a001604052806040518060800160405280600260ff168152602001602460ff168152602001602160ff168152602001601160ff1681525081526020016040518060800160405280600160ff168152602001602760ff168152602001602260ff168152602001600e60ff1681525081526020016040518060800160405280600060ff168152602001602a60ff168152602001602360ff168152602001600b60ff1681525081526020016040518060800160405280602d60ff168152602001602f60ff168152602001603560ff168152602001603360ff1681525081526020016040518060800160405280602e60ff168152602001603260ff168152602001603460ff168152602001603060ff16815250815250600160405162000a809062000e0c565b908152602001604051809103902090600562000a9e92919062000b36565b50620010bc565b82805462000ab39062000ee6565b90600052602060002090601f01602090048101928262000ad7576000855562000b23565b82601f1062000af257805160ff191683800117855562000b23565b8280016001018555821562000b23579182015b8281111562000b2257825182559160200191906001019062000b05565b5b50905062000b32919062000c00565b5090565b82805482825590600052602060002090600402810192821562000b88579160200282015b8281111562000b875782518290600462000b7692919062000c1f565b509160200191906004019062000b5a565b5b50905062000b97919062000c69565b5090565b82805482825590600052602060002090600402810192821562000bed579160200282015b8281111562000bec5782518290600462000bdb92919062000c1f565b509160200191906004019062000bbf565b5b50905062000bfc919062000c69565b5090565b5b8082111562000c1b57600081600090555060010162000c01565b5090565b826004810192821562000c56579160200282015b8281111562000c55578251829060ff1690559160200191906001019062000c33565b5b50905062000c65919062000c00565b5090565b5b8082111562000c8d576000818162000c83919062000c91565b5060040162000c6a565b5090565b5060008155600101600081556001016000815560010160009055565b600062000cbc60018362000edb565b915062000cc98262000f4b565b600182019050919050565b600062000ce360018362000edb565b915062000cf08262000f74565b600182019050919050565b600062000d0a60018362000edb565b915062000d178262000f9d565b600182019050919050565b600062000d3160018362000edb565b915062000d3e8262000fc6565b600182019050919050565b600062000d5860018362000edb565b915062000d658262000fef565b600182019050919050565b600062000d7f60018362000edb565b915062000d8c8262001018565b600182019050919050565b600062000da660018362000edb565b915062000db38262001041565b600182019050919050565b600062000dcd60018362000edb565b915062000dda826200106a565b600182019050919050565b600062000df460018362000edb565b915062000e018262001093565b600182019050919050565b600062000e198262000cad565b9150819050919050565b600062000e308262000cd4565b9150819050919050565b600062000e478262000cfb565b9150819050919050565b600062000e5e8262000d22565b9150819050919050565b600062000e758262000d49565b9150819050919050565b600062000e8c8262000d70565b9150819050919050565b600062000ea38262000d97565b9150819050919050565b600062000eba8262000dbe565b9150819050919050565b600062000ed18262000de5565b9150819050919050565b600081905092915050565b6000600282049050600182168062000eff57607f821691505b6020821081141562000f165762000f1562000f1c565b5b50919050565b7f4e487b7100000000000000000000000000000000000000000000000000000000600052602260045260246000fd5b7f4200000000000000000000000000000000000000000000000000000000000000600082015250565b7f5500000000000000000000000000000000000000000000000000000000000000600082015250565b7f4500000000000000000000000000000000000000000000000000000000000000600082015250565b7f4400000000000000000000000000000000000000000000000000000000000000600082015250565b7f4d00000000000000000000000000000000000000000000000000000000000000600082015250565b7f4c00000000000000000000000000000000000000000000000000000000000000600082015250565b7f5300000000000000000000000000000000000000000000000000000000000000600082015250565b7f4600000000000000000000000000000000000000000000000000000000000000600082015250565b7f5200000000000000000000000000000000000000000000000000000000000000600082015250565b60805160601c6113a4620010d8600039600050506113a46000f3fe608060405234801561001057600080fd5b50600436106100415760003560e01c80631865c57d14610046578063b7113f6514610064578063bc66249614610094575b600080fd5b61004e6100b0565b60405161005b91906110d9565b60405180910390f35b61007e60048036038101906100799190610fe2565b610142565b60405161008b91906110fb565b60405180910390f35b6100ae60048036038101906100a99190610f7b565b61019d565b005b6060600080546100bf906111f6565b80601f01602080910402602001604051908101604052809291908181526020018280546100eb906111f6565b80156101385780601f1061010d57610100808354040283529160200191610138565b820191906000526020600020905b81548152906001019060200180831161011b57829003601f168201915b5050505050905090565b600183805160208101820180518482526020830160208501208183528095505050505050828154811061017457600080fd5b9060005260206000209060040201816004811061019057600080fd5b0160009250925050505481565b60005b828110156102a45760005b6001856040516101bb91906110c2565b9081526020016040518091039020805490508110156102905761027d6001866040516101e791906110c2565b9081526020016040518091039020828154811061022d577f4e487b7100000000000000000000000000000000000000000000000000000000600052603260045260246000fd5b9060005260206000209060040201600480602002604051908101604052809291908260048015610272576020028201915b81548152602001906001019080831161025e575b5050505050846102aa565b808061028890611259565b9150506101ab565b50808061029c90611259565b9150506101a0565b50505050565b600080836000600481106102e7577f4e487b7100000000000000000000000000000000000000000000000000000000600052603260045260246000fd5b602002015181546102f7906111f6565b811061032c577f4e487b7100000000000000000000000000000000000000000000000000000000600052603260045260246000fd5b81546001161561034b5790600052602060002090602091828204019190065b9054901a7f010000000000000000000000000000000000000000000000000000000000000002905081610930576000836001600481106103b4577f4e487b7100000000000000000000000000000000000000000000000000000000600052603260045260246000fd5b602002015181546103c4906111f6565b81106103f9577f4e487b7100000000000000000000000000000000000000000000000000000000600052603260045260246000fd5b8154600116156104185790600052602060002090602091828204019190065b9054901a7f01000000000000000000000000000000000000000000000000000000000000000260008460006004811061047a577f4e487b7100000000000000000000000000000000000000000000000000000000600052603260045260246000fd5b6020020151815461048a906111f6565b81106104bf577f4e487b7100000000000000000000000000000000000000000000000000000000600052603260045260246000fd5b8154600116156104de5790600052602060002090602091828204019190065b601f036101000a81548160ff021916907f010000000000000000000000000000000000000000000000000000000000000084040217905550600083600260048110610552577f4e487b7100000000000000000000000000000000000000000000000000000000600052603260045260246000fd5b60200201518154610562906111f6565b8110610597577f4e487b7100000000000000000000000000000000000000000000000000000000600052603260045260246000fd5b8154600116156105b65790600052602060002090602091828204019190065b9054901a7f010000000000000000000000000000000000000000000000000000000000000002600084600160048110610618577f4e487b7100000000000000000000000000000000000000000000000000000000600052603260045260246000fd5b60200201518154610628906111f6565b811061065d577f4e487b7100000000000000000000000000000000000000000000000000000000600052603260045260246000fd5b81546001161561067c5790600052602060002090602091828204019190065b601f036101000a81548160ff021916907f0100000000000000000000000000000000000000000000000000000000000000840402179055506000836003600481106106f0577f4e487b7100000000000000000000000000000000000000000000000000000000600052603260045260246000fd5b60200201518154610700906111f6565b8110610735577f4e487b7100000000000000000000000000000000000000000000000000000000600052603260045260246000fd5b8154600116156107545790600052602060002090602091828204019190065b9054901a7f0100000000000000000000000000000000000000000000000000000000000000026000846002600481106107b6577f4e487b7100000000000000000000000000000000000000000000000000000000600052603260045260246000fd5b602002015181546107c6906111f6565b81106107fb577f4e487b7100000000000000000000000000000000000000000000000000000000600052603260045260246000fd5b81546001161561081a5790600052602060002090602091828204019190065b601f036101000a81548160ff021916907f0100000000000000000000000000000000000000000000000000000000000000840402179055508060008460036004811061088f577f4e487b7100000000000000000000000000000000000000000000000000000000600052603260045260246000fd5b6020020151815461089f906111f6565b81106108d4577f4e487b7100000000000000000000000000000000000000000000000000000000600052603260045260246000fd5b8154600116156108f35790600052602060002090602091828204019190065b601f036101000a81548160ff021916907f010000000000000000000000000000000000000000000000000000000000000084040217905550610ee4565b60008360036004811061096c577f4e487b7100000000000000000000000000000000000000000000000000000000600052603260045260246000fd5b6020020151815461097c906111f6565b81106109b1577f4e487b7100000000000000000000000000000000000000000000000000000000600052603260045260246000fd5b8154600116156109d05790600052602060002090602091828204019190065b9054901a7f010000000000000000000000000000000000000000000000000000000000000002600084600060048110610a32577f4e487b7100000000000000000000000000000000000000000000000000000000600052603260045260246000fd5b60200201518154610a42906111f6565b8110610a77577f4e487b7100000000000000000000000000000000000000000000000000000000600052603260045260246000fd5b815460011615610a965790600052602060002090602091828204019190065b601f036101000a81548160ff021916907f010000000000000000000000000000000000000000000000000000000000000084040217905550600083600260048110610b0a577f4e487b7100000000000000000000000000000000000000000000000000000000600052603260045260246000fd5b60200201518154610b1a906111f6565b8110610b4f577f4e487b7100000000000000000000000000000000000000000000000000000000600052603260045260246000fd5b815460011615610b6e5790600052602060002090602091828204019190065b9054901a7f010000000000000000000000000000000000000000000000000000000000000002600084600360048110610bd0577f4e487b7100000000000000000000000000000000000000000000000000000000600052603260045260246000fd5b60200201518154610be0906111f6565b8110610c15577f4e487b7100000000000000000000000000000000000000000000000000000000600052603260045260246000fd5b815460011615610c345790600052602060002090602091828204019190065b601f036101000a81548160ff021916907f010000000000000000000000000000000000000000000000000000000000000084040217905550600083600160048110610ca8577f4e487b7100000000000000000000000000000000000000000000000000000000600052603260045260246000fd5b60200201518154610cb8906111f6565b8110610ced577f4e487b7100000000000000000000000000000000000000000000000000000000600052603260045260246000fd5b815460011615610d0c5790600052602060002090602091828204019190065b9054901a7f010000000000000000000000000000000000000000000000000000000000000002600084600260048110610d6e577f4e487b7100000000000000000000000000000000000000000000000000000000600052603260045260246000fd5b60200201518154610d7e906111f6565b8110610db3577f4e487b7100000000000000000000000000000000000000000000000000000000600052603260045260246000fd5b815460011615610dd25790600052602060002090602091828204019190065b601f036101000a81548160ff021916907f01000000000000000000000000000000000000000000000000000000000000008404021790555080600084600160048110610e47577f4e487b7100000000000000000000000000000000000000000000000000000000600052603260045260246000fd5b60200201518154610e57906111f6565b8110610e8c577f4e487b7100000000000000000000000000000000000000000000000000000000600052603260045260246000fd5b815460011615610eab5790600052602060002090602091828204019190065b601f036101000a81548160ff021916907f0100000000000000000000000000000000000000000000000000000000000000840402179055505b505050565b6000610efc610ef78461113b565b611116565b905082815260208101848484011115610f1457600080fd5b610f1f8482856111b4565b509392505050565b600081359050610f3681611340565b92915050565b600082601f830112610f4d57600080fd5b8135610f5d848260208601610ee9565b91505092915050565b600081359050610f7581611357565b92915050565b600080600060608486031215610f9057600080fd5b600084013567ffffffffffffffff811115610faa57600080fd5b610fb686828701610f3c565b9350506020610fc786828701610f66565b9250506040610fd886828701610f27565b9150509250925092565b600080600060608486031215610ff757600080fd5b600084013567ffffffffffffffff81111561101157600080fd5b61101d86828701610f3c565b935050602061102e86828701610f66565b925050604061103f86828701610f66565b9150509250925092565b60006110548261116c565b61105e8185611182565b935061106e8185602086016111c3565b6110778161132f565b840191505092915050565b600061108d82611177565b6110978185611193565b93506110a78185602086016111c3565b80840191505092915050565b6110bc816111aa565b82525050565b60006110ce8284611082565b915081905092915050565b600060208201905081810360008301526110f38184611049565b905092915050565b600060208201905061111060008301846110b3565b92915050565b6000611120611131565b905061112c8282611228565b919050565b6000604051905090565b600067ffffffffffffffff82111561115657611155611300565b5b61115f8261132f565b9050602081019050919050565b600081519050919050565b600081519050919050565b600082825260208201905092915050565b600081905092915050565b60008115159050919050565b6000819050919050565b82818337600083830152505050565b60005b838110156111e15780820151818401526020810190506111c6565b838111156111f0576000848401525b50505050565b6000600282049050600182168061120e57607f821691505b60208210811415611222576112216112d1565b5b50919050565b6112318261132f565b810181811067ffffffffffffffff821117156112505761124f611300565b5b80604052505050565b6000611264826111aa565b91507fffffffffffffffffffffffffffffffffffffffffffffffffffffffffffffffff821415611297576112966112a2565b5b600182019050919050565b7f4e487b7100000000000000000000000000000000000000000000000000000000600052601160045260246000fd5b7f4e487b7100000000000000000000000000000000000000000000000000000000600052602260045260246000fd5b7f4e487b7100000000000000000000000000000000000000000000000000000000600052604160045260246000fd5b6000601f19601f8301169050919050565b6113498161119e565b811461135457600080fd5b50565b611360816111aa565b811461136b57600080fd5b5056fea2646970667358221220dff5d5cb6ea91278ddcedce871c90e324e260d1ff7cc4b149ebf400d85c02d7864736f6c634300080400335555555555555555555252525252525252524646464646464646464444444444444444444c4c4c4c4c4c4c4c4c424242424242424242",
  "linkReferences": {},
  "deployedLinkReferences": {}
}