{
  "_format": "hh-sol-artifact-1",
  "contractName": "MevCube",
  "sourceName": "contracts/MevCube.sol",
  "abi": [
    {
      "inputs": [],
      "stateMutability": "payable",
      "type": "constructor"
    },
    {
      "inputs": [
        {
          "internalType": "string",
          "name": "seed",
          "type": "string"
        }
      ],
      "name": "getRandomGaussianNumber",
      "outputs": [
        {
          "internalType": "uint256",
          "name": "",
          "type": "uint256"
        }
      ],
      "stateMutability": "pure",
      "type": "function"
    },
    {
      "inputs": [],
      "name": "getState",
      "outputs": [
        {
          "internalType": "bytes",
          "name": "",
          "type": "bytes"
        }
      ],
      "stateMutability": "view",
      "type": "function"
    },
    {
      "inputs": [],
      "name": "getVersion",
      "outputs": [
        {
          "internalType": "bytes",
          "name": "",
          "type": "bytes"
        }
      ],
      "stateMutability": "view",
      "type": "function"
    },
    {
      "inputs": [
        {
          "internalType": "string",
          "name": "rotations",
          "type": "string"
        }
      ],
      "name": "move",
      "outputs": [],
      "stateMutability": "nonpayable",
      "type": "function"
    },
    {
      "inputs": [
        {
          "internalType": "uint256",
          "name": "",
          "type": "uint256"
        }
      ],
      "name": "moveIndexes",
      "outputs": [
        {
          "internalType": "bytes1",
          "name": "",
          "type": "bytes1"
        }
      ],
      "stateMutability": "view",
      "type": "function"
    },
    {
      "inputs": [
        {
          "internalType": "string",
          "name": "sliceString",
          "type": "string"
        },
        {
          "internalType": "uint256",
          "name": "times",
          "type": "uint256"
        },
        {
          "internalType": "bool",
          "name": "toward",
          "type": "bool"
        }
      ],
      "name": "moveSingleAxis",
      "outputs": [],
      "stateMutability": "nonpayable",
      "type": "function"
    },
    {
      "inputs": [
        {
          "internalType": "bytes1",
          "name": "",
          "type": "bytes1"
        },
        {
          "internalType": "uint256",
          "name": "",
          "type": "uint256"
        },
        {
          "internalType": "uint256",
          "name": "",
          "type": "uint256"
        }
      ],
      "name": "moves",
      "outputs": [
        {
          "internalType": "uint256",
          "name": "",
          "type": "uint256"
        }
      ],
      "stateMutability": "view",
      "type": "function"
    },
    {
      "inputs": [],
      "name": "reset",
      "outputs": [],
      "stateMutability": "nonpayable",
      "type": "function"
    },
    {
      "inputs": [],
      "name": "scramble",
      "outputs": [],
      "stateMutability": "nonpayable",
      "type": "function"
    }
  ],
  "bytecode": "0x60e0604052600560a081905264312e302e3160d81b60c090815262000028916000919062000a2f565b5060405180606001604052806036815260200162002252603691398051620000599160019160209091019062000a2f565b5033606090811b60809081526040805161012081018252600060a08201818152601260c0840152601b60e08401526035610100840152825282518085018452600381526015602082810191909152601e82860152603282880152808401919091528351808601855260068152601881830152602181860152602f81880152838501528351808601855260248152602681830152602c81860152602a81880152838701528351808601855260258152602981830152602b9481019490945260279584019590955292810191909152601360fa1b909152600290915262000162907ffd9ac8a8d2f4156d715847077e182b5fb3e2a42ebbcfc0e4fa3e923a670cbd5e90600562000abe565b506040805160e081018252600160608083019182526013608080850191909152601c60a0850152603460c085015291835283518083018552600481526016602082810191909152601f82870152603182840152808501919091528451928301855260078352601983820152602283860152602e9183019190915292820152604d60f81b60005260029091526200021c907f6b0af275f85e3af0d8fb70ae9c6e00b7017ae473614ce1a0da0eaec90e7bee2c90600362000b1b565b506040805161012081018252601460a08201908152600260c08301819052603360e0840152601d610100840152908252825160808181018552601782526005602083810182905260308488015260608085018290528187019490945286518084018852601a8152600881830152602d81890152602381860152868801528651808401885260098152600b81830152601181890152600f818601528487015286518084018852600a8152600e81830152601097810197909752600c9387019390935290840194909452602960f91b600052526200031b917f22e9e520f19fba7b7ee4abd647c6579626afbba1ecfa2f56d7fe6cba39c79813919062000abe565b506040805161012081018252600960a08201908152601260c0830152602460e0830152602d6101008301528152815160808181018452600a82526013602083810191909152602583860152602e6060808501919091528185019390935284518083018652600b8152601481830152602681870152602f81850152848601528451808301865260008082526002828401819052600883890152600683870152858701929092528651808501885260018152600581850181905260079882019890985260039581019590955292850193909352605560f81b9091525262000423917f118c5a7c6786c28da2396b768f9bd16833859e7fc2d5e7fecbf0c9947b2f288c919062000abe565b506040805160e081018252602760608083019182526015608080850191909152600c60a0850152603060c085015291835283518083018552602881526016602082810191909152600d82870152603182840152808501919091528451928301855260298352601783820152600e8386015260329183019190915292820152604560f81b6000526002909152620004dd907f2110c5e4a708458c36d16109407a13c991c9b0300a8cd260cbc1b836dfdcfac490600362000b1b565b506040805161012081018252600f60a08201908152603360c0830152602a60e083015260186101008301528152815160808181018452601082526034602083810191909152602b838601526019606080850191909152818501939093528451808301865260118152603581830152602c81870152601a818501528486015284518083018652601b8152601d818301526023818701526021818501528385015284518083018652601c8152808201829052602295810195909552601e92850192909252820192909252601160fa1b6000526002909152620005e1907f45af83182566e52997c22ce22cc9480653d232c56ba8821bbc5b8755d539efe890600562000abe565b506040805161012081018252600660a08201908152600960c0830152601d60e0830152602c610100830152815281516080818101845260078252600c602083810191909152601c838601526029606080850191909152818501939093528451808301865260088152600f81830152601b81870152602681850152848601528451808301865260128152601481830152601a81870152601881850152838501528451808301865260138152601781830152601995810195909552601592850192909252820192909252602360f91b6000526002909152620006e5907f5a181d9cf2db70ebbc80bc9ef6a77dce01daab489a3be40f53b6ec6b31dbbe7490600562000abe565b506040805160e08101825260036060808301828152600a608080860191909152602060a08601819052602b60c08701529185528551808201875260048152600d81840152601f81880152602881850152828601528551908101865260058152601081830152601e8187015260259281019290925293830152605360f81b600052600290925262000798917f2ed0a6d52b8e94ad09f7946809b084724538cd3de6063c4e310f13a05648f65d919062000b1b565b506040805161012081018252600260a08201818152602460c0840152602160e084015260116101008401528252825160808181018552600182526027602083810191909152602283870152600e60608085019190915281860193909352855180830187526000808252602a82840152602382890152600b828601528688019190915286518084018852602d8152602f818401526035818901526033818601528487015286518084018852602e815260328184015260349781019790975260309387019390935290840194909452602160f91b90529091526200089e907ff1010cf3ea02828f6f6ecbe47e538460714da7d376b0202bb92783edf9b3024190600562000abe565b5060036020527f3617319a054d772f909f7c479a2cebe5066e836a939412e32403c99029b92eff805460ff19908116604c179091557fa15bc60c955c405d20d9149c709e2460f1c2d9a497496a7f46004d1772c3054c80548216604d1790557fc3a24b0501bd2c13a7e57f2db4369ec4c223447539fc0724a9d55ac4a06ebd4d8054821660521790557fcbc4e5fb02c3d1de23a9f1e014b4d2ee5aeaea9505df5e855c9210bf472495af8054821660551790557f83ec6a1f0257b830b5e016457c9cf1435391bf56cc98f369a58a54fe937724658054821660451790557f405aad32e1adbac89bb7f176e338b8fc6e994ca210c9bb7bdca249b4659422508054821660441790557fc69056f16cbaa3c616b828e333ab7d3a32310765507f8f58359e99ebb7a885f38054821660461790557ff2c49132ed1cee2a7e75bde50d332a2f81f1d01e5456d8a19d1df09bd561dbd280548216605317905560086000527f85aaa47b6dc46495bb8824fad4583769726fea36efd831a35556690b830a8fbe8054909116604217905562000c1e565b82805462000a3d9062000be1565b90600052602060002090601f01602090048101928262000a61576000855562000aac565b82601f1062000a7c57805160ff191683800117855562000aac565b8280016001018555821562000aac579182015b8281111562000aac57825182559160200191906001019062000a8f565b5062000aba92915062000b6a565b5090565b82805482825590600052602060002090600402810192821562000b0d579160200282015b8281111562000b0d57825162000afc908390600462000b81565b509160200191906004019062000ae2565b5062000aba92915062000bb7565b82805482825590600052602060002090600402810192821562000b0d579160200282015b8281111562000b0d57825162000b59908390600462000b81565b509160200191906004019062000b3f565b5b8082111562000aba576000815560010162000b6b565b826004810192821562000aac579160200282015b8281111562000aac578251829060ff1690559160200191906001019062000b95565b8082111562000aba5760008082556001820181905560028201819055600382015560040162000bb7565b600181811c9082168062000bf657607f821691505b6020821081141562000c1857634e487b7160e01b600052602260045260246000fd5b50919050565b60805160601c61161862000c3a600039600050506116186000f3fe608060405234801561001057600080fd5b50600436106100935760003560e01c806359021baa1161006657806359021baa146100e65780636b22260f14610107578063b39839ed14610143578063cb8fe02c14610156578063d826f88f1461015e57600080fd5b80630bfb0697146100985780630d8e6e2c146100ad57806310bfaefb146100cb5780631865c57d146100de575b600080fd5b6100ab6100a636600461112f565b610166565b005b6100b5610295565b6040516100c2919061127e565b60405180910390f35b6100ab6100d9366004611162565b610327565b6100b561043c565b6100f96100f436600461112f565b61044b565b6040519081526020016100c2565b61012a6101153660046111bf565b60036020526000908152604090205460f81b81565b6040516001600160f81b031990911681526020016100c2565b6100f96101513660046110ef565b61050a565b6100ab61054c565b6100ab6106a7565b8060005b815181101561029057600082828151811061019557634e487b7160e01b600052603260045260246000fd5b01602001516001600160f81b031916905060006101b1826106d7565b90506001600160f81b03198281169082161460005b6001600160f81b03198316600090815260026020526040902054811015610279576001600160f81b031983166000908152600260205260409020805461026791908390811061022557634e487b7160e01b600052603260045260246000fd5b60009182526020909120604080516080810191829052926004908102909201919082845b81548152602001906001019080831161024957505050505083610726565b80610271816114fa565b9150506101c6565b505050508080610288906114fa565b91505061016a565b505050565b6060600080546102a4906114bf565b80601f01602080910402602001604051908101604052809291908181526020018280546102d0906114bf565b801561031d5780601f106102f25761010080835404028352916020019161031d565b820191906000526020600020905b81548152906001019060200180831161030057829003601f168201915b5050505050905090565b600083905060008160008151811061034f57634e487b7160e01b600052603260045260246000fd5b01602001516001600160f81b031916905060005b848110156104345760005b6001600160f81b03198316600090815260026020526040902054811015610421576001600160f81b031983166000908152600260205260409020805461040f9190839081106103cd57634e487b7160e01b600052603260045260246000fd5b60009182526020909120604080516080810191829052926004908102909201919082845b8154815260200190600101908083116103f157505050505086610726565b80610419816114fa565b91505061036e565b508061042c816114fa565b915050610363565b505050505050565b6060600180546102a4906114bf565b6000806000805b60108160ff16101561048857610469856000610d53565b6104769060ff16836112ba565b915061048181611515565b9050610452565b5061049561271082611375565b90506104a2601082611322565b90506104b1621360f082611408565b90506104bf61271082611375565b90506104ce620b303382611322565b90506104db600882611375565b90506104ea62019a28826112ba565b90506104f861271082611322565b67ffffffffffffffff16949350505050565b6002602052826000526040600020828154811061052657600080fd5b9060005260206000209060040201816004811061054257600080fd5b0154925083915050565b601e600061055a6004610d92565b3361056443610d92565b60405160200161057693929190611203565b60408051601f198184030181526060830190915260218083529092506105a5919061158c602083013983610eb4565b600160005b838110156106a1576000836105be83610d92565b6040516020016105cf92919061124f565b6040516020818303038152906040528051906020012060001c905060006105f7826009610efd565b905060005b60008281526003602090815260408083205460f81b6001600160f81b0319168352600290915290205481101561068b5760008281526003602090815260408083205460f81b6001600160f81b03191683526002909152902080546106799190839081106103cd57634e487b7160e01b600052603260045260246000fd5b80610683816114fa565b9150506105fc565b5050508080610699906114fa565b9150506105aa565b50505050565b6040518060600160405280603681526020016115ad6036913980516106d491600191602090910190610fd8565b50565b6000606160f81b6001600160f81b03198316108015906107055750603d60f91b6001600160f81b0319831611155b1561072257610719602060f884901c611470565b60f81b92915050565b5090565b81516001805460009290610739906114bf565b811061075557634e487b7160e01b600052603260045260246000fd5b8154600116156107745790600052602060002090602091828204019190065b9054901a600160f81b02905081610aa1576001838160200201518154610799906114bf565b81106107b557634e487b7160e01b600052603260045260246000fd5b8154600116156107d45790600052602060002090602091828204019190065b9054600160f81b911a026001846000602002015181546107f3906114bf565b811061080f57634e487b7160e01b600052603260045260246000fd5b81546001161561082e5790600052602060002090602091828204019190065b601f036101000a81548160ff02191690600160f81b8404021790555060018360026004811061086d57634e487b7160e01b600052603260045260246000fd5b6020020151815461087d906114bf565b811061089957634e487b7160e01b600052603260045260246000fd5b8154600116156108b85790600052602060002090602091828204019190065b9054600160f81b911a0260018481602002015181546108d6906114bf565b81106108f257634e487b7160e01b600052603260045260246000fd5b8154600116156109115790600052602060002090602091828204019190065b601f036101000a81548160ff02191690600160f81b8404021790555060018360036004811061095057634e487b7160e01b600052603260045260246000fd5b60200201518154610960906114bf565b811061097c57634e487b7160e01b600052603260045260246000fd5b81546001161561099b5790600052602060002090602091828204019190065b9054600160f81b911a026001846002602002015181546109ba906114bf565b81106109d657634e487b7160e01b600052603260045260246000fd5b8154600116156109f55790600052602060002090602091828204019190065b601f036101000a81548160ff02191690600160f81b8404021790555080600184600360048110610a3557634e487b7160e01b600052603260045260246000fd5b60200201518154610a45906114bf565b8110610a6157634e487b7160e01b600052603260045260246000fd5b815460011615610a805790600052602060002090602091828204019190065b601f036101000a81548160ff02191690600160f81b84040217905550505050565b600183600360200201518154610ab6906114bf565b8110610ad257634e487b7160e01b600052603260045260246000fd5b815460011615610af15790600052602060002090602091828204019190065b9054600160f81b911a02600184600060200201518154610b10906114bf565b8110610b2c57634e487b7160e01b600052603260045260246000fd5b815460011615610b4b5790600052602060002090602091828204019190065b601f036101000a81548160ff02191690600160f81b84040217905550600183600260048110610b8a57634e487b7160e01b600052603260045260246000fd5b60200201518154610b9a906114bf565b8110610bb657634e487b7160e01b600052603260045260246000fd5b815460011615610bd55790600052602060002090602091828204019190065b9054600160f81b911a02600184600360200201518154610bf4906114bf565b8110610c1057634e487b7160e01b600052603260045260246000fd5b815460011615610c2f5790600052602060002090602091828204019190065b601f036101000a81548160ff02191690600160f81b84040217905550600183600160048110610c6e57634e487b7160e01b600052603260045260246000fd5b60200201518154610c7e906114bf565b8110610c9a57634e487b7160e01b600052603260045260246000fd5b815460011615610cb95790600052602060002090602091828204019190065b9054600160f81b911a02600184600260200201518154610cd8906114bf565b8110610cf457634e487b7160e01b600052603260045260246000fd5b815460011615610d135790600052602060002090602091828204019190065b601f036101000a81548160ff02191690600160f81b8404021790555080600184600160048110610a3557634e487b7160e01b600052603260045260246000fd5b600082610d628360ff16610d92565b604051602001610d7392919061124f565b60408051601f1981840301815291905280516020909101209392505050565b606081610db65750506040805180820190915260018152600360fc1b602082015290565b8160005b8115610de05780610dca816114fa565b9150610dd99050600a83611361565b9150610dba565b60008167ffffffffffffffff811115610e0957634e487b7160e01b600052604160045260246000fd5b6040519080825280601f01601f191660200182016040528015610e33576020820181803683370190505b5090505b8415610eac57610e48600183611459565b9150610e55600a86611535565b610e6090603061130a565b60f81b818381518110610e8357634e487b7160e01b600052603260045260246000fd5b60200101906001600160f81b031916908160001a905350610ea5600a86611361565b9450610e37565b949350505050565b610ef98282604051602401610eca929190611298565b60408051601f198184030181529190526020810180516001600160e01b03166309710a9d60e41b179052610fb7565b5050565b6000808211610f4a5760405162461bcd60e51b8152602060048201526015602482015274155b9a599bdc9b54985b990bdb5a5b8b589bdd5b99605a1b604482015260640160405180910390fd5b600082610f5981600019611459565b610f6490600161130a565b610f6e9190611535565b9050835b818110610f7e57610fa4565b604080516020808201939093528151808203840181529082019091528051910120610f72565b610fae8482611535565b95945050505050565b80516a636f6e736f6c652e6c6f67602083016000808483855afa5050505050565b828054610fe4906114bf565b90600052602060002090601f016020900481019282611006576000855561104c565b82601f1061101f57805160ff191683800117855561104c565b8280016001018555821561104c579182015b8281111561104c578251825591602001919060010190611031565b506107229291505b808211156107225760008155600101611054565b600082601f830112611078578081fd5b813567ffffffffffffffff8082111561109357611093611575565b604051601f8301601f19908116603f011681019082821181831017156110bb576110bb611575565b816040528381528660208588010111156110d3578485fd5b8360208701602083013792830160200193909352509392505050565b600080600060608486031215611103578283fd5b83356001600160f81b03198116811461111a578384fd5b95602085013595506040909401359392505050565b600060208284031215611140578081fd5b813567ffffffffffffffff811115611156578182fd5b610eac84828501611068565b600080600060608486031215611176578283fd5b833567ffffffffffffffff81111561118c578384fd5b61119886828701611068565b93505060208401359150604084013580151581146111b4578182fd5b809150509250925092565b6000602082840312156111d0578081fd5b5035919050565b600081518084526111ef816020860160208601611493565b601f01601f19169290920160200192915050565b60008451611215818460208901611493565b606085901b6bffffffffffffffffffffffff19169083019081528351611242816014840160208801611493565b0160140195945050505050565b60008351611261818460208801611493565b835190830190611275818360208801611493565b01949350505050565b60208152600061129160208301846111d7565b9392505050565b6040815260006112ab60408301856111d7565b90508260208301529392505050565b60008160070b8360070b82821282677fffffffffffffff038213811516156112e4576112e4611549565b82677fffffffffffffff1903821281161561130157611301611549565b50019392505050565b6000821982111561131d5761131d611549565b500190565b60008160070b8360070b806113395761133961155f565b677fffffffffffffff1982146000198214161561135857611358611549565b90059392505050565b6000826113705761137061155f565b500490565b60008160070b8360070b677fffffffffffffff838213848413838304851182821616156113a4576113a4611549565b677fffffffffffffff19868512828116878305871216156113c7576113c7611549565b8787129250858205871284841616156113e2576113e2611549565b858505871281841616156113f8576113f8611549565b5050509290910295945050505050565b60008160070b8360070b82811281677fffffffffffffff190183128115161561143357611433611549565b81677fffffffffffffff01831381161561144f5761144f611549565b5090039392505050565b60008282101561146b5761146b611549565b500390565b600060ff821660ff84168082101561148a5761148a611549565b90039392505050565b60005b838110156114ae578181015183820152602001611496565b838111156106a15750506000910152565b600181811c908216806114d357607f821691505b602082108114156114f457634e487b7160e01b600052602260045260246000fd5b50919050565b600060001982141561150e5761150e611549565b5060010190565b600060ff821660ff81141561152c5761152c611549565b60010192915050565b6000826115445761154461155f565b500690565b634e487b7160e01b600052601160045260246000fd5b634e487b7160e01b600052601260045260246000fd5b634e487b7160e01b600052604160045260246000fdfe736372616d626c696e672063756265207769746820257320726f746174696f6e735555555555555555555252525252525252524646464646464646464444444444444444444c4c4c4c4c4c4c4c4c424242424242424242a26469706673582212202414da88ac2a555fbf5c89f8d4aed8a66163d8752f573a6c8d90876fe0e39dcd64736f6c634300080400335555555555555555555252525252525252524646464646464646464444444444444444444c4c4c4c4c4c4c4c4c424242424242424242",
  "linkReferences": {},
  "deployedLinkReferences": {}
}