{
  "_format": "hh-sol-artifact-1",
  "contractName": "MevCube",
  "sourceName": "contracts/MevCube.sol",
  "abi": [
    {
      "inputs": [],
      "stateMutability": "payable",
      "type": "constructor"
    },
    {
      "anonymous": false,
      "inputs": [
        {
          "indexed": true,
          "internalType": "address",
          "name": "_solver",
          "type": "address"
        },
        {
          "indexed": false,
          "internalType": "string",
          "name": "_solution",
          "type": "string"
        }
      ],
      "name": "Solved",
      "type": "event"
    },
    {
      "inputs": [],
      "name": "currentScrambleReward",
      "outputs": [
        {
          "internalType": "uint256",
          "name": "",
          "type": "uint256"
        }
      ],
      "stateMutability": "view",
      "type": "function"
    },
    {
      "inputs": [
        {
          "internalType": "string",
          "name": "seed",
          "type": "string"
        }
      ],
      "name": "getRandomGaussianNumber",
      "outputs": [
        {
          "internalType": "uint256",
          "name": "",
          "type": "uint256"
        }
      ],
      "stateMutability": "pure",
      "type": "function"
    },
    {
      "inputs": [],
      "name": "getState",
      "outputs": [
        {
          "internalType": "bytes",
          "name": "",
          "type": "bytes"
        }
      ],
      "stateMutability": "view",
      "type": "function"
    },
    {
      "inputs": [],
      "name": "getVersion",
      "outputs": [
        {
          "internalType": "bytes",
          "name": "",
          "type": "bytes"
        }
      ],
      "stateMutability": "view",
      "type": "function"
    },
    {
      "inputs": [],
      "name": "isSolved",
      "outputs": [
        {
          "internalType": "bool",
          "name": "",
          "type": "bool"
        }
      ],
      "stateMutability": "view",
      "type": "function"
    },
    {
      "inputs": [
        {
          "internalType": "string",
          "name": "rotations",
          "type": "string"
        }
      ],
      "name": "move",
      "outputs": [],
      "stateMutability": "payable",
      "type": "function"
    },
    {
      "inputs": [
        {
          "internalType": "uint256",
          "name": "",
          "type": "uint256"
        }
      ],
      "name": "moveIndexes",
      "outputs": [
        {
          "internalType": "bytes1",
          "name": "",
          "type": "bytes1"
        }
      ],
      "stateMutability": "view",
      "type": "function"
    },
    {
      "inputs": [
        {
          "internalType": "bytes1",
          "name": "",
          "type": "bytes1"
        },
        {
          "internalType": "uint256",
          "name": "",
          "type": "uint256"
        },
        {
          "internalType": "uint256",
          "name": "",
          "type": "uint256"
        }
      ],
      "name": "moves",
      "outputs": [
        {
          "internalType": "uint256",
          "name": "",
          "type": "uint256"
        }
      ],
      "stateMutability": "view",
      "type": "function"
    },
    {
      "inputs": [],
      "name": "reset",
      "outputs": [],
      "stateMutability": "nonpayable",
      "type": "function"
    },
    {
      "inputs": [],
      "name": "scramble",
      "outputs": [],
      "stateMutability": "nonpayable",
      "type": "function"
    }
  ],
  "bytecode": "0x60e0604052600560a0819052640312e322e360dc1b60c090815262000028916000919062000a2f565b5060405180606001604052806036815260200162002397603691398051620000599160019160209091019062000a2f565b5033606090811b60809081526040805161012081018252600060a08201818152601260c0840152601b60e08401526035610100840152825282518085018452600381526015602082810191909152601e82860152603282880152808401919091528351808601855260068152601881830152602181860152602f81880152838501528351808601855260248152602681830152602c81860152602a81880152838701528351808601855260258152602981830152602b9481019490945260279584019590955292810191909152601360fa1b909152600290915262000162907ffd9ac8a8d2f4156d715847077e182b5fb3e2a42ebbcfc0e4fa3e923a670cbd5e90600562000abe565b506040805160e081018252600160608083019182526013608080850191909152601c60a0850152603460c085015291835283518083018552600481526016602082810191909152601f82870152603182840152808501919091528451928301855260078352601983820152602283860152602e9183019190915292820152604d60f81b60005260029091526200021c907f6b0af275f85e3af0d8fb70ae9c6e00b7017ae473614ce1a0da0eaec90e7bee2c90600362000b1b565b506040805161012081018252601460a08201908152600260c08301819052603360e0840152601d610100840152908252825160808181018552601782526005602083810182905260308488015260608085018290528187019490945286518084018852601a8152600881830152602d81890152602381860152868801528651808401885260098152600b81830152601181890152600f818601528487015286518084018852600a8152600e81830152601097810197909752600c9387019390935290840194909452602960f91b600052526200031b917f22e9e520f19fba7b7ee4abd647c6579626afbba1ecfa2f56d7fe6cba39c79813919062000abe565b506040805161012081018252600960a08201908152601260c0830152602460e0830152602d6101008301528152815160808181018452600a82526013602083810191909152602583860152602e6060808501919091528185019390935284518083018652600b8152601481830152602681870152602f81850152848601528451808301865260008082526002828401819052600883890152600683870152858701929092528651808501885260018152600581850181905260079882019890985260039581019590955292850193909352605560f81b9091525262000423917f118c5a7c6786c28da2396b768f9bd16833859e7fc2d5e7fecbf0c9947b2f288c919062000abe565b506040805160e081018252602760608083019182526015608080850191909152600c60a0850152603060c085015291835283518083018552602881526016602082810191909152600d82870152603182840152808501919091528451928301855260298352601783820152600e8386015260329183019190915292820152604560f81b6000526002909152620004dd907f2110c5e4a708458c36d16109407a13c991c9b0300a8cd260cbc1b836dfdcfac490600362000b1b565b506040805161012081018252600f60a08201908152603360c0830152602a60e083015260186101008301528152815160808181018452601082526034602083810191909152602b838601526019606080850191909152818501939093528451808301865260118152603581830152602c81870152601a818501528486015284518083018652601b8152601d818301526023818701526021818501528385015284518083018652601c8152808201829052602295810195909552601e92850192909252820192909252601160fa1b6000526002909152620005e1907f45af83182566e52997c22ce22cc9480653d232c56ba8821bbc5b8755d539efe890600562000abe565b506040805161012081018252600660a08201908152600960c0830152601d60e0830152602c610100830152815281516080818101845260078252600c602083810191909152601c838601526029606080850191909152818501939093528451808301865260088152600f81830152601b81870152602681850152848601528451808301865260128152601481830152601a81870152601881850152838501528451808301865260138152601781830152601995810195909552601592850192909252820192909252602360f91b6000526002909152620006e5907f5a181d9cf2db70ebbc80bc9ef6a77dce01daab489a3be40f53b6ec6b31dbbe7490600562000abe565b506040805160e08101825260036060808301828152600a608080860191909152602060a08601819052602b60c08701529185528551808201875260048152600d81840152601f81880152602881850152828601528551908101865260058152601081830152601e8187015260259281019290925293830152605360f81b600052600290925262000798917f2ed0a6d52b8e94ad09f7946809b084724538cd3de6063c4e310f13a05648f65d919062000b1b565b506040805161012081018252600260a08201818152602460c0840152602160e084015260116101008401528252825160808181018552600182526027602083810191909152602283870152600e60608085019190915281860193909352855180830187526000808252602a82840152602382890152600b828601528688019190915286518084018852602d8152602f818401526035818901526033818601528487015286518084018852602e815260328184015260349781019790975260309387019390935290840194909452602160f91b90529091526200089e907ff1010cf3ea02828f6f6ecbe47e538460714da7d376b0202bb92783edf9b3024190600562000abe565b5060036020527f3617319a054d772f909f7c479a2cebe5066e836a939412e32403c99029b92eff805460ff19908116604c179091557fa15bc60c955c405d20d9149c709e2460f1c2d9a497496a7f46004d1772c3054c80548216604d1790557fc3a24b0501bd2c13a7e57f2db4369ec4c223447539fc0724a9d55ac4a06ebd4d8054821660521790557fcbc4e5fb02c3d1de23a9f1e014b4d2ee5aeaea9505df5e855c9210bf472495af8054821660551790557f83ec6a1f0257b830b5e016457c9cf1435391bf56cc98f369a58a54fe937724658054821660451790557f405aad32e1adbac89bb7f176e338b8fc6e994ca210c9bb7bdca249b4659422508054821660441790557fc69056f16cbaa3c616b828e333ab7d3a32310765507f8f58359e99ebb7a885f38054821660461790557ff2c49132ed1cee2a7e75bde50d332a2f81f1d01e5456d8a19d1df09bd561dbd280548216605317905560086000527f85aaa47b6dc46495bb8824fad4583769726fea36efd831a35556690b830a8fbe8054909116604217905562000c1e565b82805462000a3d9062000be1565b90600052602060002090601f01602090048101928262000a61576000855562000aac565b82601f1062000a7c57805160ff191683800117855562000aac565b8280016001018555821562000aac579182015b8281111562000aac57825182559160200191906001019062000a8f565b5062000aba92915062000b6a565b5090565b82805482825590600052602060002090600402810192821562000b0d579160200282015b8281111562000b0d57825162000afc908390600462000b81565b509160200191906004019062000ae2565b5062000aba92915062000bb7565b82805482825590600052602060002090600402810192821562000b0d579160200282015b8281111562000b0d57825162000b59908390600462000b81565b509160200191906004019062000b3f565b5b8082111562000aba576000815560010162000b6b565b826004810192821562000aac579160200282015b8281111562000aac578251829060ff1690559160200191906001019062000b95565b8082111562000aba5760008082556001820181905560028201819055600382015560040162000bb7565b600181811c9082168062000bf657607f821691505b6020821081141562000c1857634e487b7160e01b600052602260045260246000fd5b50919050565b60805160601c61175d62000c3a6000396000505061175d6000f3fe6080604052600436106100915760003560e01c806364d98f6e1161005957806364d98f6e146101245780636b22260f14610149578063b39839ed14610192578063cb8fe02c146101b2578063d826f88f146101c757600080fd5b80630378e240146100965780630bfb0697146100b85780630d8e6e2c146100cd5780631865c57d146100ef57806359021baa14610104575b600080fd5b3480156100a257600080fd5b50475b6040519081526020015b60405180910390f35b6100cb6100c6366004611280565b6101dc565b005b3480156100d957600080fd5b506100e26103ac565b6040516100af91906113e9565b3480156100fb57600080fd5b506100e261043e565b34801561011057600080fd5b506100a561011f366004611280565b61044d565b34801561013057600080fd5b5061013961050c565b60405190151581526020016100af565b34801561015557600080fd5b5061017961016436600461132a565b60036020526000908152604090205460f81b81565b6040516001600160f81b031990911681526020016100af565b34801561019e57600080fd5b506100a56101ad366004611240565b61064d565b3480156101be57600080fd5b506100cb61068f565b3480156101d357600080fd5b506100cb6108ed565b34662386f26fc100001461022e5760405162461bcd60e51b8152602060048201526014602482015273496e636f727265637420736f6c7665722066656560601b60448201526064015b60405180910390fd5b8060005b815181101561035857600082828151811061025d57634e487b7160e01b600052603260045260246000fd5b01602001516001600160f81b031916905060006102798261091d565b90506001600160f81b03198281169082161460005b6001600160f81b03198316600090815260026020526040902054811015610341576001600160f81b031983166000908152600260205260409020805461032f9190839081106102ed57634e487b7160e01b600052603260045260246000fd5b60009182526020909120604080516080810191829052926004908102909201919082845b8154815260200190600101908083116103115750505050508361096c565b8061033981611660565b91505061028e565b50505050808061035090611660565b915050610232565b5061036161050c565b156103a857336001600160a01b03167fb81beb4ff40a86501250f69102482c8c40f4508f5cf34ccf5ee31bcfdfde587d8360405161039f91906113e9565b60405180910390a25b5050565b6060600080546103bb9061162b565b80601f01602080910402602001604051908101604052809291908181526020018280546103e79061162b565b80156104345780601f1061040957610100808354040283529160200191610434565b820191906000526020600020905b81548152906001019060200180831161041757829003601f168201915b5050505050905090565b6060600180546103bb9061162b565b6000806000805b60108160ff16101561048a5761046b856000610f99565b6104789060ff1683611403565b91506104838161167b565b9050610454565b50610497612710826114be565b90506104a460108261146b565b90506104b3621360f082611570565b90506104c1612710826114be565b90506104d0620b30338261146b565b90506104dd6008826114be565b90506104ec62019a2882611403565b90506104fa6127108261146b565b67ffffffffffffffff16949350505050565b60006001815b60058110156106475760005b600881101561063457828015610620575060018161053d846009611551565b6105479190611453565b610552906001611453565b815461055d9061162b565b811061057957634e487b7160e01b600052603260045260246000fd5b8154600116156105985790600052602060002090602091828204019190065b9054901a600160f81b026001600160f81b0319166001826105ba856009611551565b6105c49190611453565b81546105cf9061162b565b81106105eb57634e487b7160e01b600052603260045260246000fd5b81546001161561060a5790600052602060002090602091828204019190065b9054901a600160f81b026001600160f81b031916145b92508061062c81611660565b91505061051e565b508061063f81611660565b915050610512565b50919050565b6002602052826000526040600020828154811061066957600080fd5b9060005260206000209060040201816004811061068557600080fd5b0154925083915050565b61069761050c565b6106d95760405162461bcd60e51b815260206004820152601360248201527210dd5899481b5d5cdd081899481cdbdb1d9959606a1b6044820152606401610225565b601e60006106e76004610fd8565b336106f143610fd8565b6040516020016107039392919061136e565b60408051601f198184030181529190529050600160005b838110156108535760008361072e83610fd8565b60405160200161073f9291906113ba565b6040516020818303038152906040528051906020012060001c905060006107678260096110fa565b905060005b60008281526003602090815260408083205460f81b6001600160f81b0319168352600290915290205481101561083d5760008281526003602090815260408083205460f81b6001600160f81b031916835260029091529020805461082b9190839081106107e957634e487b7160e01b600052603260045260246000fd5b60009182526020909120604080516080810191829052926004908102909201919082845b81548152602001906001019080831161080d5750505050508661096c565b8061083581611660565b91505061076c565b505050808061084b90611660565b91505061071a565b506040514790600090339083908381818185875af1925050503d8060008114610898576040519150601f19603f3d011682016040523d82523d6000602084013e61089d565b606091505b50509050806108e65760405162461bcd60e51b815260206004820152601560248201527411985a5b1959081d1bc81cd95b99081c995dd85c99605a1b6044820152606401610225565b5050505050565b6040518060600160405280603681526020016116f260369139805161091a916001916020909101906111b0565b50565b6000606160f81b6001600160f81b031983161080159061094b5750603d60f91b6001600160f81b0319831611155b156109685761095f602060f884901c6115d8565b60f81b92915050565b5090565b8151600180546000929061097f9061162b565b811061099b57634e487b7160e01b600052603260045260246000fd5b8154600116156109ba5790600052602060002090602091828204019190065b9054901a600160f81b02905081610ce75760018381602002015181546109df9061162b565b81106109fb57634e487b7160e01b600052603260045260246000fd5b815460011615610a1a5790600052602060002090602091828204019190065b9054600160f81b911a02600184600060200201518154610a399061162b565b8110610a5557634e487b7160e01b600052603260045260246000fd5b815460011615610a745790600052602060002090602091828204019190065b601f036101000a81548160ff02191690600160f81b84040217905550600183600260048110610ab357634e487b7160e01b600052603260045260246000fd5b60200201518154610ac39061162b565b8110610adf57634e487b7160e01b600052603260045260246000fd5b815460011615610afe5790600052602060002090602091828204019190065b9054600160f81b911a026001848160200201518154610b1c9061162b565b8110610b3857634e487b7160e01b600052603260045260246000fd5b815460011615610b575790600052602060002090602091828204019190065b601f036101000a81548160ff02191690600160f81b84040217905550600183600360048110610b9657634e487b7160e01b600052603260045260246000fd5b60200201518154610ba69061162b565b8110610bc257634e487b7160e01b600052603260045260246000fd5b815460011615610be15790600052602060002090602091828204019190065b9054600160f81b911a02600184600260200201518154610c009061162b565b8110610c1c57634e487b7160e01b600052603260045260246000fd5b815460011615610c3b5790600052602060002090602091828204019190065b601f036101000a81548160ff02191690600160f81b8404021790555080600184600360048110610c7b57634e487b7160e01b600052603260045260246000fd5b60200201518154610c8b9061162b565b8110610ca757634e487b7160e01b600052603260045260246000fd5b815460011615610cc65790600052602060002090602091828204019190065b601f036101000a81548160ff02191690600160f81b84040217905550505050565b600183600360200201518154610cfc9061162b565b8110610d1857634e487b7160e01b600052603260045260246000fd5b815460011615610d375790600052602060002090602091828204019190065b9054600160f81b911a02600184600060200201518154610d569061162b565b8110610d7257634e487b7160e01b600052603260045260246000fd5b815460011615610d915790600052602060002090602091828204019190065b601f036101000a81548160ff02191690600160f81b84040217905550600183600260048110610dd057634e487b7160e01b600052603260045260246000fd5b60200201518154610de09061162b565b8110610dfc57634e487b7160e01b600052603260045260246000fd5b815460011615610e1b5790600052602060002090602091828204019190065b9054600160f81b911a02600184600360200201518154610e3a9061162b565b8110610e5657634e487b7160e01b600052603260045260246000fd5b815460011615610e755790600052602060002090602091828204019190065b601f036101000a81548160ff02191690600160f81b84040217905550600183600160048110610eb457634e487b7160e01b600052603260045260246000fd5b60200201518154610ec49061162b565b8110610ee057634e487b7160e01b600052603260045260246000fd5b815460011615610eff5790600052602060002090602091828204019190065b9054600160f81b911a02600184600260200201518154610f1e9061162b565b8110610f3a57634e487b7160e01b600052603260045260246000fd5b815460011615610f595790600052602060002090602091828204019190065b601f036101000a81548160ff02191690600160f81b8404021790555080600184600160048110610c7b57634e487b7160e01b600052603260045260246000fd5b600082610fa88360ff16610fd8565b604051602001610fb99291906113ba565b60408051601f1981840301815291905280516020909101209392505050565b606081610ffc5750506040805180820190915260018152600360fc1b602082015290565b8160005b8115611026578061101081611660565b915061101f9050600a836114aa565b9150611000565b60008167ffffffffffffffff81111561104f57634e487b7160e01b600052604160045260246000fd5b6040519080825280601f01601f191660200182016040528015611079576020820181803683370190505b5090505b84156110f25761108e6001836115c1565b915061109b600a8661169b565b6110a6906030611453565b60f81b8183815181106110c957634e487b7160e01b600052603260045260246000fd5b60200101906001600160f81b031916908160001a9053506110eb600a866114aa565b945061107d565b949350505050565b60008082116111435760405162461bcd60e51b8152602060048201526015602482015274155b9a599bdc9b54985b990bdb5a5b8b589bdd5b99605a1b6044820152606401610225565b600082611152816000196115c1565b61115d906001611453565b611167919061169b565b9050835b8181106111775761119d565b60408051602080820193909352815180820384018152908201909152805191012061116b565b6111a7848261169b565b95945050505050565b8280546111bc9061162b565b90600052602060002090601f0160209004810192826111de5760008555611224565b82601f106111f757805160ff1916838001178555611224565b82800160010185558215611224579182015b82811115611224578251825591602001919060010190611209565b506109689291505b80821115610968576000815560010161122c565b600080600060608486031215611254578283fd5b83356001600160f81b03198116811461126b578384fd5b95602085013595506040909401359392505050565b600060208284031215611291578081fd5b813567ffffffffffffffff808211156112a8578283fd5b818401915084601f8301126112bb578283fd5b8135818111156112cd576112cd6116db565b604051601f8201601f19908116603f011681019083821181831017156112f5576112f56116db565b8160405282815287602084870101111561130d578586fd5b826020860160208301379182016020019490945295945050505050565b60006020828403121561133b578081fd5b5035919050565b6000815180845261135a8160208601602086016115fb565b601f01601f19169290920160200192915050565b600084516113808184602089016115fb565b606085901b6bffffffffffffffffffffffff191690830190815283516113ad8160148401602088016115fb565b0160140195945050505050565b600083516113cc8184602088016115fb565b8351908301906113e08183602088016115fb565b01949350505050565b6020815260006113fc6020830184611342565b9392505050565b60008160070b8360070b82821282677fffffffffffffff0382138115161561142d5761142d6116af565b82677fffffffffffffff1903821281161561144a5761144a6116af565b50019392505050565b60008219821115611466576114666116af565b500190565b60008160070b8360070b80611482576114826116c5565b677fffffffffffffff198214600019821416156114a1576114a16116af565b90059392505050565b6000826114b9576114b96116c5565b500490565b60008160070b8360070b677fffffffffffffff838213848413838304851182821616156114ed576114ed6116af565b677fffffffffffffff1986851282811687830587121615611510576115106116af565b87871292508582058712848416161561152b5761152b6116af565b85850587128184161615611541576115416116af565b5050509290910295945050505050565b600081600019048311821515161561156b5761156b6116af565b500290565b60008160070b8360070b82811281677fffffffffffffff190183128115161561159b5761159b6116af565b81677fffffffffffffff0183138116156115b7576115b76116af565b5090039392505050565b6000828210156115d3576115d36116af565b500390565b600060ff821660ff8416808210156115f2576115f26116af565b90039392505050565b60005b838110156116165781810151838201526020016115fe565b83811115611625576000848401525b50505050565b600181811c9082168061163f57607f821691505b6020821081141561064757634e487b7160e01b600052602260045260246000fd5b6000600019821415611674576116746116af565b5060010190565b600060ff821660ff811415611692576116926116af565b60010192915050565b6000826116aa576116aa6116c5565b500690565b634e487b7160e01b600052601160045260246000fd5b634e487b7160e01b600052601260045260246000fd5b634e487b7160e01b600052604160045260246000fdfe5555555555555555555252525252525252524646464646464646464444444444444444444c4c4c4c4c4c4c4c4c424242424242424242a26469706673582212207d84cf1507e6e7cea1b0cf09d038027b7907270c5aeffef93151d85e9d5b7bee64736f6c634300080400335555555555555555555252525252525252524646464646464646464444444444444444444c4c4c4c4c4c4c4c4c424242424242424242",
  "linkReferences": {},
  "deployedLinkReferences": {}
}