{
  "_format": "hh-sol-artifact-1",
  "contractName": "MevCube",
  "sourceName": "contracts/MevCube.sol",
  "abi": [
    {
      "inputs": [],
      "stateMutability": "payable",
      "type": "constructor"
    },
    {
      "anonymous": false,
      "inputs": [
        {
          "indexed": true,
          "internalType": "address",
          "name": "_solver",
          "type": "address"
        },
        {
          "indexed": false,
          "internalType": "string",
          "name": "_solution",
          "type": "string"
        }
      ],
      "name": "Solved",
      "type": "event"
    },
    {
      "inputs": [
        {
          "internalType": "string",
          "name": "seed",
          "type": "string"
        }
      ],
      "name": "getRandomGaussianNumber",
      "outputs": [
        {
          "internalType": "uint256",
          "name": "",
          "type": "uint256"
        }
      ],
      "stateMutability": "pure",
      "type": "function"
    },
    {
      "inputs": [],
      "name": "getState",
      "outputs": [
        {
          "internalType": "bytes",
          "name": "",
          "type": "bytes"
        }
      ],
      "stateMutability": "view",
      "type": "function"
    },
    {
      "inputs": [],
      "name": "getVersion",
      "outputs": [
        {
          "internalType": "bytes",
          "name": "",
          "type": "bytes"
        }
      ],
      "stateMutability": "view",
      "type": "function"
    },
    {
      "inputs": [],
      "name": "isSolved",
      "outputs": [
        {
          "internalType": "bool",
          "name": "",
          "type": "bool"
        }
      ],
      "stateMutability": "view",
      "type": "function"
    },
    {
      "inputs": [
        {
          "internalType": "string",
          "name": "rotations",
          "type": "string"
        }
      ],
      "name": "move",
      "outputs": [],
      "stateMutability": "payable",
      "type": "function"
    },
    {
      "inputs": [
        {
          "internalType": "uint256",
          "name": "",
          "type": "uint256"
        }
      ],
      "name": "moveIndexes",
      "outputs": [
        {
          "internalType": "bytes1",
          "name": "",
          "type": "bytes1"
        }
      ],
      "stateMutability": "view",
      "type": "function"
    },
    {
      "inputs": [
        {
          "internalType": "bytes1",
          "name": "",
          "type": "bytes1"
        },
        {
          "internalType": "uint256",
          "name": "",
          "type": "uint256"
        },
        {
          "internalType": "uint256",
          "name": "",
          "type": "uint256"
        }
      ],
      "name": "moves",
      "outputs": [
        {
          "internalType": "uint256",
          "name": "",
          "type": "uint256"
        }
      ],
      "stateMutability": "view",
      "type": "function"
    },
    {
      "inputs": [],
      "name": "reset",
      "outputs": [],
      "stateMutability": "nonpayable",
      "type": "function"
    },
    {
      "inputs": [],
      "name": "scramble",
      "outputs": [],
      "stateMutability": "nonpayable",
      "type": "function"
    }
  ],
  "bytecode": "0x60e0604052600560a0819052640312e322e360dc1b60c090815262000028916000919062000a2f565b5060405180606001604052806036815260200162002381603691398051620000599160019160209091019062000a2f565b5033606090811b60809081526040805161012081018252600060a08201818152601260c0840152601b60e08401526035610100840152825282518085018452600381526015602082810191909152601e82860152603282880152808401919091528351808601855260068152601881830152602181860152602f81880152838501528351808601855260248152602681830152602c81860152602a81880152838701528351808601855260258152602981830152602b9481019490945260279584019590955292810191909152601360fa1b909152600290915262000162907ffd9ac8a8d2f4156d715847077e182b5fb3e2a42ebbcfc0e4fa3e923a670cbd5e90600562000abe565b506040805160e081018252600160608083019182526013608080850191909152601c60a0850152603460c085015291835283518083018552600481526016602082810191909152601f82870152603182840152808501919091528451928301855260078352601983820152602283860152602e9183019190915292820152604d60f81b60005260029091526200021c907f6b0af275f85e3af0d8fb70ae9c6e00b7017ae473614ce1a0da0eaec90e7bee2c90600362000b1b565b506040805161012081018252601460a08201908152600260c08301819052603360e0840152601d610100840152908252825160808181018552601782526005602083810182905260308488015260608085018290528187019490945286518084018852601a8152600881830152602d81890152602381860152868801528651808401885260098152600b81830152601181890152600f818601528487015286518084018852600a8152600e81830152601097810197909752600c9387019390935290840194909452602960f91b600052526200031b917f22e9e520f19fba7b7ee4abd647c6579626afbba1ecfa2f56d7fe6cba39c79813919062000abe565b506040805161012081018252600960a08201908152601260c0830152602460e0830152602d6101008301528152815160808181018452600a82526013602083810191909152602583860152602e6060808501919091528185019390935284518083018652600b8152601481830152602681870152602f81850152848601528451808301865260008082526002828401819052600883890152600683870152858701929092528651808501885260018152600581850181905260079882019890985260039581019590955292850193909352605560f81b9091525262000423917f118c5a7c6786c28da2396b768f9bd16833859e7fc2d5e7fecbf0c9947b2f288c919062000abe565b506040805160e081018252602760608083019182526015608080850191909152600c60a0850152603060c085015291835283518083018552602881526016602082810191909152600d82870152603182840152808501919091528451928301855260298352601783820152600e8386015260329183019190915292820152604560f81b6000526002909152620004dd907f2110c5e4a708458c36d16109407a13c991c9b0300a8cd260cbc1b836dfdcfac490600362000b1b565b506040805161012081018252600f60a08201908152603360c0830152602a60e083015260186101008301528152815160808181018452601082526034602083810191909152602b838601526019606080850191909152818501939093528451808301865260118152603581830152602c81870152601a818501528486015284518083018652601b8152601d818301526023818701526021818501528385015284518083018652601c8152808201829052602295810195909552601e92850192909252820192909252601160fa1b6000526002909152620005e1907f45af83182566e52997c22ce22cc9480653d232c56ba8821bbc5b8755d539efe890600562000abe565b506040805161012081018252600660a08201908152600960c0830152601d60e0830152602c610100830152815281516080818101845260078252600c602083810191909152601c838601526029606080850191909152818501939093528451808301865260088152600f81830152601b81870152602681850152848601528451808301865260128152601481830152601a81870152601881850152838501528451808301865260138152601781830152601995810195909552601592850192909252820192909252602360f91b6000526002909152620006e5907f5a181d9cf2db70ebbc80bc9ef6a77dce01daab489a3be40f53b6ec6b31dbbe7490600562000abe565b506040805160e08101825260036060808301828152600a608080860191909152602060a08601819052602b60c08701529185528551808201875260048152600d81840152601f81880152602881850152828601528551908101865260058152601081830152601e8187015260259281019290925293830152605360f81b600052600290925262000798917f2ed0a6d52b8e94ad09f7946809b084724538cd3de6063c4e310f13a05648f65d919062000b1b565b506040805161012081018252600260a08201818152602460c0840152602160e084015260116101008401528252825160808181018552600182526027602083810191909152602283870152600e60608085019190915281860193909352855180830187526000808252602a82840152602382890152600b828601528688019190915286518084018852602d8152602f818401526035818901526033818601528487015286518084018852602e815260328184015260349781019790975260309387019390935290840194909452602160f91b90529091526200089e907ff1010cf3ea02828f6f6ecbe47e538460714da7d376b0202bb92783edf9b3024190600562000abe565b5060036020527f3617319a054d772f909f7c479a2cebe5066e836a939412e32403c99029b92eff805460ff19908116604c179091557fa15bc60c955c405d20d9149c709e2460f1c2d9a497496a7f46004d1772c3054c80548216604d1790557fc3a24b0501bd2c13a7e57f2db4369ec4c223447539fc0724a9d55ac4a06ebd4d8054821660521790557fcbc4e5fb02c3d1de23a9f1e014b4d2ee5aeaea9505df5e855c9210bf472495af8054821660551790557f83ec6a1f0257b830b5e016457c9cf1435391bf56cc98f369a58a54fe937724658054821660451790557f405aad32e1adbac89bb7f176e338b8fc6e994ca210c9bb7bdca249b4659422508054821660441790557fc69056f16cbaa3c616b828e333ab7d3a32310765507f8f58359e99ebb7a885f38054821660461790557ff2c49132ed1cee2a7e75bde50d332a2f81f1d01e5456d8a19d1df09bd561dbd280548216605317905560086000527f85aaa47b6dc46495bb8824fad4583769726fea36efd831a35556690b830a8fbe8054909116604217905562000c1e565b82805462000a3d9062000be1565b90600052602060002090601f01602090048101928262000a61576000855562000aac565b82601f1062000a7c57805160ff191683800117855562000aac565b8280016001018555821562000aac579182015b8281111562000aac57825182559160200191906001019062000a8f565b5062000aba92915062000b6a565b5090565b82805482825590600052602060002090600402810192821562000b0d579160200282015b8281111562000b0d57825162000afc908390600462000b81565b509160200191906004019062000ae2565b5062000aba92915062000bb7565b82805482825590600052602060002090600402810192821562000b0d579160200282015b8281111562000b0d57825162000b59908390600462000b81565b509160200191906004019062000b3f565b5b8082111562000aba576000815560010162000b6b565b826004810192821562000aac579160200282015b8281111562000aac578251829060ff1690559160200191906001019062000b95565b8082111562000aba5760008082556001820181905560028201819055600382015560040162000bb7565b600181811c9082168062000bf657607f821691505b6020821081141562000c1857634e487b7160e01b600052602260045260246000fd5b50919050565b60805160601c61174762000c3a600039600050506117476000f3fe6080604052600436106100865760003560e01c806364d98f6e1161005957806364d98f6e1461010e5780636b22260f14610133578063b39839ed1461017c578063cb8fe02c1461019c578063d826f88f146101b157600080fd5b80630bfb06971461008b5780630d8e6e2c146100a05780631865c57d146100cb57806359021baa146100e0575b600080fd5b61009e61009936600461126a565b6101c6565b005b3480156100ac57600080fd5b506100b5610396565b6040516100c291906113d3565b60405180910390f35b3480156100d757600080fd5b506100b5610428565b3480156100ec57600080fd5b506101006100fb36600461126a565b610437565b6040519081526020016100c2565b34801561011a57600080fd5b506101236104f6565b60405190151581526020016100c2565b34801561013f57600080fd5b5061016361014e366004611314565b60036020526000908152604090205460f81b81565b6040516001600160f81b031990911681526020016100c2565b34801561018857600080fd5b5061010061019736600461122a565b610637565b3480156101a857600080fd5b5061009e610679565b3480156101bd57600080fd5b5061009e6108d7565b34662386f26fc10000146102185760405162461bcd60e51b8152602060048201526014602482015273496e636f727265637420736f6c7665722066656560601b60448201526064015b60405180910390fd5b8060005b815181101561034257600082828151811061024757634e487b7160e01b600052603260045260246000fd5b01602001516001600160f81b0319169050600061026382610907565b90506001600160f81b03198281169082161460005b6001600160f81b0319831660009081526002602052604090205481101561032b576001600160f81b03198316600090815260026020526040902080546103199190839081106102d757634e487b7160e01b600052603260045260246000fd5b60009182526020909120604080516080810191829052926004908102909201919082845b8154815260200190600101908083116102fb57505050505083610956565b806103238161164a565b915050610278565b50505050808061033a9061164a565b91505061021c565b5061034b6104f6565b1561039257336001600160a01b03167fb81beb4ff40a86501250f69102482c8c40f4508f5cf34ccf5ee31bcfdfde587d8360405161038991906113d3565b60405180910390a25b5050565b6060600080546103a590611615565b80601f01602080910402602001604051908101604052809291908181526020018280546103d190611615565b801561041e5780601f106103f35761010080835404028352916020019161041e565b820191906000526020600020905b81548152906001019060200180831161040157829003601f168201915b5050505050905090565b6060600180546103a590611615565b6000806000805b60108160ff16101561047457610455856000610f83565b6104629060ff16836113ed565b915061046d81611665565b905061043e565b50610481612710826114a8565b905061048e601082611455565b905061049d621360f08261155a565b90506104ab612710826114a8565b90506104ba620b303382611455565b90506104c76008826114a8565b90506104d662019a28826113ed565b90506104e461271082611455565b67ffffffffffffffff16949350505050565b60006001815b60058110156106315760005b600881101561061e5782801561060a575060018161052784600961153b565b610531919061143d565b61053c90600161143d565b815461054790611615565b811061056357634e487b7160e01b600052603260045260246000fd5b8154600116156105825790600052602060002090602091828204019190065b9054901a600160f81b026001600160f81b0319166001826105a485600961153b565b6105ae919061143d565b81546105b990611615565b81106105d557634e487b7160e01b600052603260045260246000fd5b8154600116156105f45790600052602060002090602091828204019190065b9054901a600160f81b026001600160f81b031916145b9250806106168161164a565b915050610508565b50806106298161164a565b9150506104fc565b50919050565b6002602052826000526040600020828154811061065357600080fd5b9060005260206000209060040201816004811061066f57600080fd5b0154925083915050565b6106816104f6565b6106c35760405162461bcd60e51b815260206004820152601360248201527210dd5899481b5d5cdd081899481cdbdb1d9959606a1b604482015260640161020f565b601e60006106d16004610fc2565b336106db43610fc2565b6040516020016106ed93929190611358565b60408051601f198184030181529190529050600160005b8381101561083d5760008361071883610fc2565b6040516020016107299291906113a4565b6040516020818303038152906040528051906020012060001c905060006107518260096110e4565b905060005b60008281526003602090815260408083205460f81b6001600160f81b031916835260029091529020548110156108275760008281526003602090815260408083205460f81b6001600160f81b03191683526002909152902080546108159190839081106107d357634e487b7160e01b600052603260045260246000fd5b60009182526020909120604080516080810191829052926004908102909201919082845b8154815260200190600101908083116107f757505050505086610956565b8061081f8161164a565b915050610756565b50505080806108359061164a565b915050610704565b506040514790600090339083908381818185875af1925050503d8060008114610882576040519150601f19603f3d011682016040523d82523d6000602084013e610887565b606091505b50509050806108d05760405162461bcd60e51b815260206004820152601560248201527411985a5b1959081d1bc81cd95b99081c995dd85c99605a1b604482015260640161020f565b5050505050565b6040518060600160405280603681526020016116dc6036913980516109049160019160209091019061119a565b50565b6000606160f81b6001600160f81b03198316108015906109355750603d60f91b6001600160f81b0319831611155b1561095257610949602060f884901c6115c2565b60f81b92915050565b5090565b8151600180546000929061096990611615565b811061098557634e487b7160e01b600052603260045260246000fd5b8154600116156109a45790600052602060002090602091828204019190065b9054901a600160f81b02905081610cd15760018381602002015181546109c990611615565b81106109e557634e487b7160e01b600052603260045260246000fd5b815460011615610a045790600052602060002090602091828204019190065b9054600160f81b911a02600184600060200201518154610a2390611615565b8110610a3f57634e487b7160e01b600052603260045260246000fd5b815460011615610a5e5790600052602060002090602091828204019190065b601f036101000a81548160ff02191690600160f81b84040217905550600183600260048110610a9d57634e487b7160e01b600052603260045260246000fd5b60200201518154610aad90611615565b8110610ac957634e487b7160e01b600052603260045260246000fd5b815460011615610ae85790600052602060002090602091828204019190065b9054600160f81b911a026001848160200201518154610b0690611615565b8110610b2257634e487b7160e01b600052603260045260246000fd5b815460011615610b415790600052602060002090602091828204019190065b601f036101000a81548160ff02191690600160f81b84040217905550600183600360048110610b8057634e487b7160e01b600052603260045260246000fd5b60200201518154610b9090611615565b8110610bac57634e487b7160e01b600052603260045260246000fd5b815460011615610bcb5790600052602060002090602091828204019190065b9054600160f81b911a02600184600260200201518154610bea90611615565b8110610c0657634e487b7160e01b600052603260045260246000fd5b815460011615610c255790600052602060002090602091828204019190065b601f036101000a81548160ff02191690600160f81b8404021790555080600184600360048110610c6557634e487b7160e01b600052603260045260246000fd5b60200201518154610c7590611615565b8110610c9157634e487b7160e01b600052603260045260246000fd5b815460011615610cb05790600052602060002090602091828204019190065b601f036101000a81548160ff02191690600160f81b84040217905550505050565b600183600360200201518154610ce690611615565b8110610d0257634e487b7160e01b600052603260045260246000fd5b815460011615610d215790600052602060002090602091828204019190065b9054600160f81b911a02600184600060200201518154610d4090611615565b8110610d5c57634e487b7160e01b600052603260045260246000fd5b815460011615610d7b5790600052602060002090602091828204019190065b601f036101000a81548160ff02191690600160f81b84040217905550600183600260048110610dba57634e487b7160e01b600052603260045260246000fd5b60200201518154610dca90611615565b8110610de657634e487b7160e01b600052603260045260246000fd5b815460011615610e055790600052602060002090602091828204019190065b9054600160f81b911a02600184600360200201518154610e2490611615565b8110610e4057634e487b7160e01b600052603260045260246000fd5b815460011615610e5f5790600052602060002090602091828204019190065b601f036101000a81548160ff02191690600160f81b84040217905550600183600160048110610e9e57634e487b7160e01b600052603260045260246000fd5b60200201518154610eae90611615565b8110610eca57634e487b7160e01b600052603260045260246000fd5b815460011615610ee95790600052602060002090602091828204019190065b9054600160f81b911a02600184600260200201518154610f0890611615565b8110610f2457634e487b7160e01b600052603260045260246000fd5b815460011615610f435790600052602060002090602091828204019190065b601f036101000a81548160ff02191690600160f81b8404021790555080600184600160048110610c6557634e487b7160e01b600052603260045260246000fd5b600082610f928360ff16610fc2565b604051602001610fa39291906113a4565b60408051601f1981840301815291905280516020909101209392505050565b606081610fe65750506040805180820190915260018152600360fc1b602082015290565b8160005b81156110105780610ffa8161164a565b91506110099050600a83611494565b9150610fea565b60008167ffffffffffffffff81111561103957634e487b7160e01b600052604160045260246000fd5b6040519080825280601f01601f191660200182016040528015611063576020820181803683370190505b5090505b84156110dc576110786001836115ab565b9150611085600a86611685565b61109090603061143d565b60f81b8183815181106110b357634e487b7160e01b600052603260045260246000fd5b60200101906001600160f81b031916908160001a9053506110d5600a86611494565b9450611067565b949350505050565b600080821161112d5760405162461bcd60e51b8152602060048201526015602482015274155b9a599bdc9b54985b990bdb5a5b8b589bdd5b99605a1b604482015260640161020f565b60008261113c816000196115ab565b61114790600161143d565b6111519190611685565b9050835b81811061116157611187565b604080516020808201939093528151808203840181529082019091528051910120611155565b6111918482611685565b95945050505050565b8280546111a690611615565b90600052602060002090601f0160209004810192826111c8576000855561120e565b82601f106111e157805160ff191683800117855561120e565b8280016001018555821561120e579182015b8281111561120e5782518255916020019190600101906111f3565b506109529291505b808211156109525760008155600101611216565b60008060006060848603121561123e578283fd5b83356001600160f81b031981168114611255578384fd5b95602085013595506040909401359392505050565b60006020828403121561127b578081fd5b813567ffffffffffffffff80821115611292578283fd5b818401915084601f8301126112a5578283fd5b8135818111156112b7576112b76116c5565b604051601f8201601f19908116603f011681019083821181831017156112df576112df6116c5565b816040528281528760208487010111156112f7578586fd5b826020860160208301379182016020019490945295945050505050565b600060208284031215611325578081fd5b5035919050565b600081518084526113448160208601602086016115e5565b601f01601f19169290920160200192915050565b6000845161136a8184602089016115e5565b606085901b6bffffffffffffffffffffffff191690830190815283516113978160148401602088016115e5565b0160140195945050505050565b600083516113b68184602088016115e5565b8351908301906113ca8183602088016115e5565b01949350505050565b6020815260006113e6602083018461132c565b9392505050565b60008160070b8360070b82821282677fffffffffffffff0382138115161561141757611417611699565b82677fffffffffffffff1903821281161561143457611434611699565b50019392505050565b6000821982111561145057611450611699565b500190565b60008160070b8360070b8061146c5761146c6116af565b677fffffffffffffff1982146000198214161561148b5761148b611699565b90059392505050565b6000826114a3576114a36116af565b500490565b60008160070b8360070b677fffffffffffffff838213848413838304851182821616156114d7576114d7611699565b677fffffffffffffff19868512828116878305871216156114fa576114fa611699565b87871292508582058712848416161561151557611515611699565b8585058712818416161561152b5761152b611699565b5050509290910295945050505050565b600081600019048311821515161561155557611555611699565b500290565b60008160070b8360070b82811281677fffffffffffffff190183128115161561158557611585611699565b81677fffffffffffffff0183138116156115a1576115a1611699565b5090039392505050565b6000828210156115bd576115bd611699565b500390565b600060ff821660ff8416808210156115dc576115dc611699565b90039392505050565b60005b838110156116005781810151838201526020016115e8565b8381111561160f576000848401525b50505050565b600181811c9082168061162957607f821691505b6020821081141561063157634e487b7160e01b600052602260045260246000fd5b600060001982141561165e5761165e611699565b5060010190565b600060ff821660ff81141561167c5761167c611699565b60010192915050565b600082611694576116946116af565b500690565b634e487b7160e01b600052601160045260246000fd5b634e487b7160e01b600052601260045260246000fd5b634e487b7160e01b600052604160045260246000fdfe5555555555555555555252525252525252524646464646464646464444444444444444444c4c4c4c4c4c4c4c4c424242424242424242a2646970667358221220ecebac1cf0dc00e69d9fa58614f9be128a41bc207b03be85789bfa3cc8b1567164736f6c634300080400335555555555555555555252525252525252524646464646464646464444444444444444444c4c4c4c4c4c4c4c4c424242424242424242",
  "linkReferences": {},
  "deployedLinkReferences": {}
}