{
  "_format": "hh-sol-artifact-1",
  "contractName": "MevCube",
  "sourceName": "contracts/MevCube.sol",
  "abi": [
    {
      "inputs": [],
      "stateMutability": "payable",
      "type": "constructor"
    },
    {
      "anonymous": false,
      "inputs": [
        {
          "indexed": true,
          "internalType": "address",
          "name": "_solver",
          "type": "address"
        },
        {
          "indexed": false,
          "internalType": "string",
          "name": "_solution",
          "type": "string"
        }
      ],
      "name": "Solved",
      "type": "event"
    },
    {
      "inputs": [
        {
          "internalType": "string",
          "name": "seed",
          "type": "string"
        }
      ],
      "name": "getRandomGaussianNumber",
      "outputs": [
        {
          "internalType": "uint256",
          "name": "",
          "type": "uint256"
        }
      ],
      "stateMutability": "pure",
      "type": "function"
    },
    {
      "inputs": [],
      "name": "getState",
      "outputs": [
        {
          "internalType": "bytes",
          "name": "",
          "type": "bytes"
        }
      ],
      "stateMutability": "view",
      "type": "function"
    },
    {
      "inputs": [],
      "name": "getVersion",
      "outputs": [
        {
          "internalType": "bytes",
          "name": "",
          "type": "bytes"
        }
      ],
      "stateMutability": "view",
      "type": "function"
    },
    {
      "inputs": [],
      "name": "isSolved",
      "outputs": [
        {
          "internalType": "bool",
          "name": "",
          "type": "bool"
        }
      ],
      "stateMutability": "view",
      "type": "function"
    },
    {
      "inputs": [
        {
          "internalType": "string",
          "name": "rotations",
          "type": "string"
        }
      ],
      "name": "move",
      "outputs": [],
      "stateMutability": "nonpayable",
      "type": "function"
    },
    {
      "inputs": [
        {
          "internalType": "uint256",
          "name": "",
          "type": "uint256"
        }
      ],
      "name": "moveIndexes",
      "outputs": [
        {
          "internalType": "bytes1",
          "name": "",
          "type": "bytes1"
        }
      ],
      "stateMutability": "view",
      "type": "function"
    },
    {
      "inputs": [
        {
          "internalType": "string",
          "name": "sliceString",
          "type": "string"
        },
        {
          "internalType": "uint256",
          "name": "times",
          "type": "uint256"
        },
        {
          "internalType": "bool",
          "name": "toward",
          "type": "bool"
        }
      ],
      "name": "moveSingleAxis",
      "outputs": [],
      "stateMutability": "nonpayable",
      "type": "function"
    },
    {
      "inputs": [
        {
          "internalType": "bytes1",
          "name": "",
          "type": "bytes1"
        },
        {
          "internalType": "uint256",
          "name": "",
          "type": "uint256"
        },
        {
          "internalType": "uint256",
          "name": "",
          "type": "uint256"
        }
      ],
      "name": "moves",
      "outputs": [
        {
          "internalType": "uint256",
          "name": "",
          "type": "uint256"
        }
      ],
      "stateMutability": "view",
      "type": "function"
    },
    {
      "inputs": [],
      "name": "reset",
      "outputs": [],
      "stateMutability": "nonpayable",
      "type": "function"
    },
    {
      "inputs": [],
      "name": "scramble",
      "outputs": [],
      "stateMutability": "nonpayable",
      "type": "function"
    }
  ],
  "bytecode": "0x60e0604052600560a0819052640312e312e360dc1b60c090815262000028916000919062000a2f565b5060405180606001604052806036815260200162002354603691398051620000599160019160209091019062000a2f565b5033606090811b60809081526040805161012081018252600060a08201818152601260c0840152601b60e08401526035610100840152825282518085018452600381526015602082810191909152601e82860152603282880152808401919091528351808601855260068152601881830152602181860152602f81880152838501528351808601855260248152602681830152602c81860152602a81880152838701528351808601855260258152602981830152602b9481019490945260279584019590955292810191909152601360fa1b909152600290915262000162907ffd9ac8a8d2f4156d715847077e182b5fb3e2a42ebbcfc0e4fa3e923a670cbd5e90600562000abe565b506040805160e081018252600160608083019182526013608080850191909152601c60a0850152603460c085015291835283518083018552600481526016602082810191909152601f82870152603182840152808501919091528451928301855260078352601983820152602283860152602e9183019190915292820152604d60f81b60005260029091526200021c907f6b0af275f85e3af0d8fb70ae9c6e00b7017ae473614ce1a0da0eaec90e7bee2c90600362000b1b565b506040805161012081018252601460a08201908152600260c08301819052603360e0840152601d610100840152908252825160808181018552601782526005602083810182905260308488015260608085018290528187019490945286518084018852601a8152600881830152602d81890152602381860152868801528651808401885260098152600b81830152601181890152600f818601528487015286518084018852600a8152600e81830152601097810197909752600c9387019390935290840194909452602960f91b600052526200031b917f22e9e520f19fba7b7ee4abd647c6579626afbba1ecfa2f56d7fe6cba39c79813919062000abe565b506040805161012081018252600960a08201908152601260c0830152602460e0830152602d6101008301528152815160808181018452600a82526013602083810191909152602583860152602e6060808501919091528185019390935284518083018652600b8152601481830152602681870152602f81850152848601528451808301865260008082526002828401819052600883890152600683870152858701929092528651808501885260018152600581850181905260079882019890985260039581019590955292850193909352605560f81b9091525262000423917f118c5a7c6786c28da2396b768f9bd16833859e7fc2d5e7fecbf0c9947b2f288c919062000abe565b506040805160e081018252602760608083019182526015608080850191909152600c60a0850152603060c085015291835283518083018552602881526016602082810191909152600d82870152603182840152808501919091528451928301855260298352601783820152600e8386015260329183019190915292820152604560f81b6000526002909152620004dd907f2110c5e4a708458c36d16109407a13c991c9b0300a8cd260cbc1b836dfdcfac490600362000b1b565b506040805161012081018252600f60a08201908152603360c0830152602a60e083015260186101008301528152815160808181018452601082526034602083810191909152602b838601526019606080850191909152818501939093528451808301865260118152603581830152602c81870152601a818501528486015284518083018652601b8152601d818301526023818701526021818501528385015284518083018652601c8152808201829052602295810195909552601e92850192909252820192909252601160fa1b6000526002909152620005e1907f45af83182566e52997c22ce22cc9480653d232c56ba8821bbc5b8755d539efe890600562000abe565b506040805161012081018252600660a08201908152600960c0830152601d60e0830152602c610100830152815281516080818101845260078252600c602083810191909152601c838601526029606080850191909152818501939093528451808301865260088152600f81830152601b81870152602681850152848601528451808301865260128152601481830152601a81870152601881850152838501528451808301865260138152601781830152601995810195909552601592850192909252820192909252602360f91b6000526002909152620006e5907f5a181d9cf2db70ebbc80bc9ef6a77dce01daab489a3be40f53b6ec6b31dbbe7490600562000abe565b506040805160e08101825260036060808301828152600a608080860191909152602060a08601819052602b60c08701529185528551808201875260048152600d81840152601f81880152602881850152828601528551908101865260058152601081830152601e8187015260259281019290925293830152605360f81b600052600290925262000798917f2ed0a6d52b8e94ad09f7946809b084724538cd3de6063c4e310f13a05648f65d919062000b1b565b506040805161012081018252600260a08201818152602460c0840152602160e084015260116101008401528252825160808181018552600182526027602083810191909152602283870152600e60608085019190915281860193909352855180830187526000808252602a82840152602382890152600b828601528688019190915286518084018852602d8152602f818401526035818901526033818601528487015286518084018852602e815260328184015260349781019790975260309387019390935290840194909452602160f91b90529091526200089e907ff1010cf3ea02828f6f6ecbe47e538460714da7d376b0202bb92783edf9b3024190600562000abe565b5060036020527f3617319a054d772f909f7c479a2cebe5066e836a939412e32403c99029b92eff805460ff19908116604c179091557fa15bc60c955c405d20d9149c709e2460f1c2d9a497496a7f46004d1772c3054c80548216604d1790557fc3a24b0501bd2c13a7e57f2db4369ec4c223447539fc0724a9d55ac4a06ebd4d8054821660521790557fcbc4e5fb02c3d1de23a9f1e014b4d2ee5aeaea9505df5e855c9210bf472495af8054821660551790557f83ec6a1f0257b830b5e016457c9cf1435391bf56cc98f369a58a54fe937724658054821660451790557f405aad32e1adbac89bb7f176e338b8fc6e994ca210c9bb7bdca249b4659422508054821660441790557fc69056f16cbaa3c616b828e333ab7d3a32310765507f8f58359e99ebb7a885f38054821660461790557ff2c49132ed1cee2a7e75bde50d332a2f81f1d01e5456d8a19d1df09bd561dbd280548216605317905560086000527f85aaa47b6dc46495bb8824fad4583769726fea36efd831a35556690b830a8fbe8054909116604217905562000c1e565b82805462000a3d9062000be1565b90600052602060002090601f01602090048101928262000a61576000855562000aac565b82601f1062000a7c57805160ff191683800117855562000aac565b8280016001018555821562000aac579182015b8281111562000aac57825182559160200191906001019062000a8f565b5062000aba92915062000b6a565b5090565b82805482825590600052602060002090600402810192821562000b0d579160200282015b8281111562000b0d57825162000afc908390600462000b81565b509160200191906004019062000ae2565b5062000aba92915062000bb7565b82805482825590600052602060002090600402810192821562000b0d579160200282015b8281111562000b0d57825162000b59908390600462000b81565b509160200191906004019062000b3f565b5b8082111562000aba576000815560010162000b6b565b826004810192821562000aac579160200282015b8281111562000aac578251829060ff1690559160200191906001019062000b95565b8082111562000aba5760008082556001820181905560028201819055600382015560040162000bb7565b600181811c9082168062000bf657607f821691505b6020821081141562000c1857634e487b7160e01b600052602260045260246000fd5b50919050565b60805160601c61171a62000c3a6000396000505061171a6000f3fe608060405234801561001057600080fd5b506004361061009e5760003560e01c806364d98f6e1161006657806364d98f6e146101125780636b22260f1461012a578063b39839ed14610166578063cb8fe02c14610179578063d826f88f1461018157600080fd5b80630bfb0697146100a35780630d8e6e2c146100b857806310bfaefb146100d65780631865c57d146100e957806359021baa146100f1575b600080fd5b6100b66100b136600461125b565b610189565b005b6100c0610307565b6040516100cd91906113aa565b60405180910390f35b6100b66100e436600461128e565b610399565b6100c06104ae565b6101046100ff36600461125b565b6104bd565b6040519081526020016100cd565b61011a61057c565b60405190151581526020016100cd565b61014d6101383660046112eb565b60036020526000908152604090205460f81b81565b6040516001600160f81b031990911681526020016100cd565b61010461017436600461121b565b6106bd565b6100b66106ff565b6100b661083d565b8060005b81518110156102b35760008282815181106101b857634e487b7160e01b600052603260045260246000fd5b01602001516001600160f81b031916905060006101d48261086d565b90506001600160f81b03198281169082161460005b6001600160f81b0319831660009081526002602052604090205481101561029c576001600160f81b031983166000908152600260205260409020805461028a91908390811061024857634e487b7160e01b600052603260045260246000fd5b60009182526020909120604080516080810191829052926004908102909201919082845b81548152602001906001019080831161026c575050505050836108bc565b806102948161161d565b9150506101e9565b5050505080806102ab9061161d565b91505061018d565b506102bc61057c565b1561030357336001600160a01b03167fb81beb4ff40a86501250f69102482c8c40f4508f5cf34ccf5ee31bcfdfde587d836040516102fa91906113aa565b60405180910390a25b5050565b606060008054610316906115e8565b80601f0160208091040260200160405190810160405280929190818152602001828054610342906115e8565b801561038f5780601f106103645761010080835404028352916020019161038f565b820191906000526020600020905b81548152906001019060200180831161037257829003601f168201915b5050505050905090565b60008390506000816000815181106103c157634e487b7160e01b600052603260045260246000fd5b01602001516001600160f81b031916905060005b848110156104a65760005b6001600160f81b03198316600090815260026020526040902054811015610493576001600160f81b031983166000908152600260205260409020805461048191908390811061043f57634e487b7160e01b600052603260045260246000fd5b60009182526020909120604080516080810191829052926004908102909201919082845b815481526020019060010190808311610463575050505050866108bc565b8061048b8161161d565b9150506103e0565b508061049e8161161d565b9150506103d5565b505050505050565b606060018054610316906115e8565b6000806000805b60108160ff1610156104fa576104db856000610ee9565b6104e89060ff16836113c4565b91506104f381611638565b90506104c4565b506105076127108261147f565b905061051460108261142c565b9050610523621360f082611531565b90506105316127108261147f565b9050610540620b30338261142c565b905061054d60088261147f565b905061055c62019a28826113c4565b905061056a6127108261142c565b67ffffffffffffffff16949350505050565b60006001815b60058110156106b75760005b60088110156106a45782801561069057506001816105ad846009611512565b6105b79190611414565b6105c2906001611414565b81546105cd906115e8565b81106105e957634e487b7160e01b600052603260045260246000fd5b8154600116156106085790600052602060002090602091828204019190065b9054901a600160f81b026001600160f81b03191660018261062a856009611512565b6106349190611414565b815461063f906115e8565b811061065b57634e487b7160e01b600052603260045260246000fd5b81546001161561067a5790600052602060002090602091828204019190065b9054901a600160f81b026001600160f81b031916145b92508061069c8161161d565b91505061058e565b50806106af8161161d565b915050610582565b50919050565b600260205282600052604060002082815481106106d957600080fd5b906000526020600020906004020181600481106106f557600080fd5b0154925083915050565b601e600061070d6004610f28565b3361071743610f28565b6040516020016107299392919061132f565b60408051601f198184030181529190529050600160005b838110156108375760008361075483610f28565b60405160200161076592919061137b565b6040516020818303038152906040528051906020012060001c9050600061078d82600961104a565b905060005b60008281526003602090815260408083205460f81b6001600160f81b031916835260029091529020548110156108215760008281526003602090815260408083205460f81b6001600160f81b031916835260029091529020805461080f91908390811061043f57634e487b7160e01b600052603260045260246000fd5b806108198161161d565b915050610792565b505050808061082f9061161d565b915050610740565b50505050565b6040518060600160405280603681526020016116af60369139805161086a91600191602090910190611104565b50565b6000606160f81b6001600160f81b031983161080159061089b5750603d60f91b6001600160f81b0319831611155b156108b8576108af602060f884901c611599565b60f81b92915050565b5090565b815160018054600092906108cf906115e8565b81106108eb57634e487b7160e01b600052603260045260246000fd5b81546001161561090a5790600052602060002090602091828204019190065b9054901a600160f81b02905081610c3757600183816020020151815461092f906115e8565b811061094b57634e487b7160e01b600052603260045260246000fd5b81546001161561096a5790600052602060002090602091828204019190065b9054600160f81b911a02600184600060200201518154610989906115e8565b81106109a557634e487b7160e01b600052603260045260246000fd5b8154600116156109c45790600052602060002090602091828204019190065b601f036101000a81548160ff02191690600160f81b84040217905550600183600260048110610a0357634e487b7160e01b600052603260045260246000fd5b60200201518154610a13906115e8565b8110610a2f57634e487b7160e01b600052603260045260246000fd5b815460011615610a4e5790600052602060002090602091828204019190065b9054600160f81b911a026001848160200201518154610a6c906115e8565b8110610a8857634e487b7160e01b600052603260045260246000fd5b815460011615610aa75790600052602060002090602091828204019190065b601f036101000a81548160ff02191690600160f81b84040217905550600183600360048110610ae657634e487b7160e01b600052603260045260246000fd5b60200201518154610af6906115e8565b8110610b1257634e487b7160e01b600052603260045260246000fd5b815460011615610b315790600052602060002090602091828204019190065b9054600160f81b911a02600184600260200201518154610b50906115e8565b8110610b6c57634e487b7160e01b600052603260045260246000fd5b815460011615610b8b5790600052602060002090602091828204019190065b601f036101000a81548160ff02191690600160f81b8404021790555080600184600360048110610bcb57634e487b7160e01b600052603260045260246000fd5b60200201518154610bdb906115e8565b8110610bf757634e487b7160e01b600052603260045260246000fd5b815460011615610c165790600052602060002090602091828204019190065b601f036101000a81548160ff02191690600160f81b84040217905550505050565b600183600360200201518154610c4c906115e8565b8110610c6857634e487b7160e01b600052603260045260246000fd5b815460011615610c875790600052602060002090602091828204019190065b9054600160f81b911a02600184600060200201518154610ca6906115e8565b8110610cc257634e487b7160e01b600052603260045260246000fd5b815460011615610ce15790600052602060002090602091828204019190065b601f036101000a81548160ff02191690600160f81b84040217905550600183600260048110610d2057634e487b7160e01b600052603260045260246000fd5b60200201518154610d30906115e8565b8110610d4c57634e487b7160e01b600052603260045260246000fd5b815460011615610d6b5790600052602060002090602091828204019190065b9054600160f81b911a02600184600360200201518154610d8a906115e8565b8110610da657634e487b7160e01b600052603260045260246000fd5b815460011615610dc55790600052602060002090602091828204019190065b601f036101000a81548160ff02191690600160f81b84040217905550600183600160048110610e0457634e487b7160e01b600052603260045260246000fd5b60200201518154610e14906115e8565b8110610e3057634e487b7160e01b600052603260045260246000fd5b815460011615610e4f5790600052602060002090602091828204019190065b9054600160f81b911a02600184600260200201518154610e6e906115e8565b8110610e8a57634e487b7160e01b600052603260045260246000fd5b815460011615610ea95790600052602060002090602091828204019190065b601f036101000a81548160ff02191690600160f81b8404021790555080600184600160048110610bcb57634e487b7160e01b600052603260045260246000fd5b600082610ef88360ff16610f28565b604051602001610f0992919061137b565b60408051601f1981840301815291905280516020909101209392505050565b606081610f4c5750506040805180820190915260018152600360fc1b602082015290565b8160005b8115610f765780610f608161161d565b9150610f6f9050600a8361146b565b9150610f50565b60008167ffffffffffffffff811115610f9f57634e487b7160e01b600052604160045260246000fd5b6040519080825280601f01601f191660200182016040528015610fc9576020820181803683370190505b5090505b841561104257610fde600183611582565b9150610feb600a86611658565b610ff6906030611414565b60f81b81838151811061101957634e487b7160e01b600052603260045260246000fd5b60200101906001600160f81b031916908160001a90535061103b600a8661146b565b9450610fcd565b949350505050565b60008082116110975760405162461bcd60e51b8152602060048201526015602482015274155b9a599bdc9b54985b990bdb5a5b8b589bdd5b99605a1b604482015260640160405180910390fd5b6000826110a681600019611582565b6110b1906001611414565b6110bb9190611658565b9050835b8181106110cb576110f1565b6040805160208082019390935281518082038401815290820190915280519101206110bf565b6110fb8482611658565b95945050505050565b828054611110906115e8565b90600052602060002090601f0160209004810192826111325760008555611178565b82601f1061114b57805160ff1916838001178555611178565b82800160010185558215611178579182015b8281111561117857825182559160200191906001019061115d565b506108b89291505b808211156108b85760008155600101611180565b600082601f8301126111a4578081fd5b813567ffffffffffffffff808211156111bf576111bf611698565b604051601f8301601f19908116603f011681019082821181831017156111e7576111e7611698565b816040528381528660208588010111156111ff578485fd5b8360208701602083013792830160200193909352509392505050565b60008060006060848603121561122f578283fd5b83356001600160f81b031981168114611246578384fd5b95602085013595506040909401359392505050565b60006020828403121561126c578081fd5b813567ffffffffffffffff811115611282578182fd5b61104284828501611194565b6000806000606084860312156112a2578283fd5b833567ffffffffffffffff8111156112b8578384fd5b6112c486828701611194565b93505060208401359150604084013580151581146112e0578182fd5b809150509250925092565b6000602082840312156112fc578081fd5b5035919050565b6000815180845261131b8160208601602086016115bc565b601f01601f19169290920160200192915050565b600084516113418184602089016115bc565b606085901b6bffffffffffffffffffffffff1916908301908152835161136e8160148401602088016115bc565b0160140195945050505050565b6000835161138d8184602088016115bc565b8351908301906113a18183602088016115bc565b01949350505050565b6020815260006113bd6020830184611303565b9392505050565b60008160070b8360070b82821282677fffffffffffffff038213811516156113ee576113ee61166c565b82677fffffffffffffff1903821281161561140b5761140b61166c565b50019392505050565b600082198211156114275761142761166c565b500190565b60008160070b8360070b8061144357611443611682565b677fffffffffffffff198214600019821416156114625761146261166c565b90059392505050565b60008261147a5761147a611682565b500490565b60008160070b8360070b677fffffffffffffff838213848413838304851182821616156114ae576114ae61166c565b677fffffffffffffff19868512828116878305871216156114d1576114d161166c565b8787129250858205871284841616156114ec576114ec61166c565b858505871281841616156115025761150261166c565b5050509290910295945050505050565b600081600019048311821515161561152c5761152c61166c565b500290565b60008160070b8360070b82811281677fffffffffffffff190183128115161561155c5761155c61166c565b81677fffffffffffffff0183138116156115785761157861166c565b5090039392505050565b6000828210156115945761159461166c565b500390565b600060ff821660ff8416808210156115b3576115b361166c565b90039392505050565b60005b838110156115d75781810151838201526020016115bf565b838111156108375750506000910152565b600181811c908216806115fc57607f821691505b602082108114156106b757634e487b7160e01b600052602260045260246000fd5b60006000198214156116315761163161166c565b5060010190565b600060ff821660ff81141561164f5761164f61166c565b60010192915050565b60008261166757611667611682565b500690565b634e487b7160e01b600052601160045260246000fd5b634e487b7160e01b600052601260045260246000fd5b634e487b7160e01b600052604160045260246000fdfe5555555555555555555252525252525252524646464646464646464444444444444444444c4c4c4c4c4c4c4c4c424242424242424242a2646970667358221220bc41ed0d63495093ba260b25783abfa2efaccd78aa354d285f2227657f0b3ba164736f6c634300080400335555555555555555555252525252525252524646464646464646464444444444444444444c4c4c4c4c4c4c4c4c424242424242424242",
  "linkReferences": {},
  "deployedLinkReferences": {}
}